:100000000C943E000C9448000C9448000C9448005A
:100010000C9448000C9448000C9448000C94480040
:100020000C9448000C9448000C9448000C94480030
:100030000C9448000C9448000C9448000C94480020
:100040000C9448000C9448000C9448000C94480010
:100050000C9448000C9448000C9448000C94480000
:100060000C9448000C9448000C9448000C944800F0
:100070000C9448000C9448000C94480011241FBEB6
:10008000CFEFD8E0DEBFCDBF0E9479000C94A20074
:100090000C94000099B1982351F0EFE1FEE4319700
:1000A000F1F700C0000099B1982381E009F480E0E5
:1000B00008950F931F93CF93DF93EC01062F142F16
:1000C0004A9902C04B9B0EC084E00E944A008823DC
:1000D00011F00883F5CF88E00E944A00882381F35D
:1000E0001883EECFDF91CF911F910F91089512B831
:1000F00008950F92CDB7DEB71AB88FEF81B9198284
:1001000012E08981823099F060F440E062E0811170
:1001100002C040E061E0CE0101960E94590012B891
:10012000F0CF833039F090E080E00F90089540E008
:1001300063E0F1CF40E060E0CE0101960E945900FB
:0801400012B9DFCFF894FFCFE4
:00000001FF
