:100000000C943E000C9448000C9448000C9448005A
:100010000C9448000C9448000C9448000C94480040
:100020000C9448000C9448000C9448000C94480030
:100030000C9448000C9448000C9448000C94480020
:100040000C9448000C9448000C9448000C94480010
:100050000C9448000C9448000C9448000C94480000
:100060000C9448000C9448000C9448000C944800F0
:100070000C9448000C9448000C94480011241FBEB6
:10008000CFEFD8E0DEBFCDBF0E9456000C947400C5
:100090000C9400004A9B08C08FE19EE40197F1F7A1
:1000A00000C0000081E0089580E008958FEF81B9DD
:1000B0001AB8D2E0C1E00E944A008823E1F32FEF92
:1000C00083ED90E3215080409040E1F700C00000B4
:1000D000D2B92FEF83ED90E3215080409040E1F7BB
:0C00E00000C00000C2B9E7CFF894FFCFC9
:00000001FF
