:100000000C943E000C9448000C9448000C9448005A
:100010000C9448000C9448000C9448000C94480040
:100020000C9448000C9448000C9448000C94480030
:100030000C9448000C9448000C9448000C94480020
:100040000C9448000C9448000C9448000C94480010
:100050000C9448000C9448000C9448000C94480000
:100060000C9448000C9448000C9448000C944800F0
:100070000C9448000C9448000C94480011241FBEB6
:10008000CFEFD8E0DEBFCDBF0E947C000C94A7006C
:100090000C94000099B1982351F0EFE1FEE4319700
:1000A000F1F700C0000099B1982381E009F480E0E5
:1000B00008950F931F93CF93DF93EC01062F142F16
:1000C0004A9902C04B9B0EC084E00E944A008823DC
:1000D00011F00883F5CF88E00E944A00882381F35D
:1000E0001883EECFDF91CF911F910F91089512B831
:1000F000089582E082B908950F92CDB7DEB71AB89D
:100100008FEF81B919821981113069F0123099F09D
:10011000111119C041E061E0CE0101960E94590021
:1001200082E082B9F0CF42E060E0CE0101960E9409
:10013000590012B9E8CF40E061E0CE0101960E947B
:10014000590012B8E0CF90E080E00F900895F89445
:02015000FFCFDF
:00000001FF
