:100000000C9440000C9468000C9468000C946800F8
:100010000C9468000C9468000C9468000C946800C0
:100020000C9468000C9468000C9468000C946800B0
:100030000C9468000C9482020C9468000C94680084
:100040000C9468000C9468000C9468000C94680090
:100050000C9468000C9468000C9468000C94680080
:100060000C9468000C9468000C9468000C94680070
:100070000C9468000C9468000C94680027082B0806
:1000800011241FBECFEFD8E0DEBFCDBF11E0A0E04E
:10009000B1E0EEE8F6E102C005900D92A432B1079E
:1000A000D9F721E0A4E2B1E001C01D92A932B20764
:1000B000E1F710E0CFE3D0E004C02197FE010E94F9
:1000C0004308CE33D107C9F70E9445070C94330B80
:1000D0000C94000099B1EFE5FAEE3197F1F700C00A
:1000E000000029B192FF02C081E0921380E00895E0
:1000F0000F931F93CF93DF930F92CDB7DEB7182FD7
:10010000CE0101960E940303612FCE0101960E9449
:100110000C038C01CE0101960E940903C80196953B
:100120008795969587950F90DF91CF911F910F91AD
:1001300008957F928F929F92AF92BF92CF92DF925B
:10014000EF92FF920F931F93CF93DF93CDB7DEB75C
:10015000E4970FB6F894DEBF0FBECDBF5E0184E317
:10016000A80EB11CC5010E9403036E0193E3C90EE2
:10017000D11CC6010E94590481E00E947800182F0A
:1001800099E3F92E0AE37A2C8B2C9C2CED2C23E09E
:10019000C22E21E0D22ECE0101965C011531A8F1CC
:1001A0001D3388F5F12C183318F089E3F82E0AE393
:1001B0004F2D50E0602F70E0892D9E2D0E949D04F0
:1001C00080910101882361F06F2D802F0E9404042B
:1001D00010920101802F0E943D038F2D0E943D034C
:1001E00081E00E947800182F1F928F93DF92CF92A8
:1001F000BF92AF920E945D080F900F900F900F90EA
:100200000F900F90CBCF00E0D3CF892D9E2D0E9471
:100210005B04872D982D0E940903E4960FB6F8948D
:10022000DEBF0FBECDBFDF91CF911F910F91FF9029
:10023000EF90DF90CF90BF90AF909F908F907F9086
:1002400008953F924F925F926F927F928F929F920A
:10025000AF92BF92CF92DF92EF92FF920F931F93D4
:10026000CF93DF9300D0CDB7DEB77C016B015E0189
:1002700082E0A80EB11CC5010E9403038E010F5F2E
:100280001F4FC8010E9459040E942F0381E00E9461
:1002900078004A2C3B2C702E612E94E6592E2FEFBD
:1002A00030E049018E189F085901AC18BD088353EE
:1002B0008D3008F476C084E00E947800182F86E024
:1002C0000E947800482F212F30E000E0E216F3066C
:1002D0007CF40AE51C3E60F42E193F09529EC001D1
:1002E000539E900D1124B4010E942F080CEE060FAE
:1002F000242F30E0C216D3060CF074C04C3E08F038
:100300006CC02C193D09529EC001539E900D1124C2
:10031000B5010E942F08162F053098F00F3170F5A7
:10032000412F50E0602F70E0872D962D0E949D0494
:1003300080910101612F811115C081E00E94780038
:10034000B6CF6F3168F3412F50E0BA016A5071099E
:10035000872D962D0E94AF0480910101882369F3B7
:1003600068E7610F802F0E94040410920101802F22
:100370000E943D03812F0E943D03DFCF653080F650
:10038000402F50E0BA016A507109872D962D0E94C6
:10039000AB0480910101882381F2612F88E7800FEF
:1003A000E2CF872D962D0E945B04842D932D0E9411
:1003B00009030F900F90DF91CF911F910F91FF9044
:1003C000EF90DF90CF90BF90AF909F908F907F90F5
:1003D0006F905F904F903F90089514E6053008F0BD
:1003E0009FCFB1CF10E00F3158F69ACFCF93DF9364
:1003F0000F92CDB7DEB7CE0101960E94590441E4B9
:1004000050E068E570E0CE0101960E949D042FEF58
:1004100087EB98E8215080409040E1F700C0000051
:10042000CE0101960E945B040F90DF91CF91089559
:10043000EF92FF920F931F93CF93DF9300D000D0E2
:1004400000D0CDB7DEB7F82E21E030E050E040E03C
:1004500065E270E08E010F5F1F4FC8010E94B30478
:1004600026E7F2122CC09FE0E92EF12CC8010E9471
:100470002E058FEF90E722E0815090402040E1F779
:1004800000C00000C8010E947E058FEF90E722E0C7
:10049000815090402040E1F700C0000081E0E81A60
:1004A000F10821F726960FB6F894DEBF0FBECDBF38
:1004B000DF91CF911F910F91FF90EF90089592E7F8
:1004C000F912F0CF8FE0E82EF12CC8010E940A0546
:1004D0002FEF80E792E0215080409040E1F700C08C
:1004E0000000C8010E947E052FEF80E792E02150B6
:1004F00080409040E1F700C0000021E0E21AF108DE
:1005000021F7D0CF8F938FB78F93809100018823ED
:1005100019F081E0809301018F918FBF8F91189521
:10052000F8941092850010928400109280008DE063
:100530008093810082E080936F008DE093E0909340
:1005400089008093880078940895DF92EF92FF925B
:100550000F931F93CF93DF930F92CDB7DEB78E012A
:100560000F5F1F4FC8010E945904C8010E947F04F9
:100570002FEF89E698E1215080409040E1F700C0DC
:1005800000000E943804E82EF12CFE1468F58F2D2F
:1005900090E00E943B04D82E81E08F0D90E00E94F5
:1005A0003B04482FF394F3942EE62D1588F450E085
:1005B0006EE76D0D70E0C8010E94AB048FEF90E70D
:1005C00022E0815090402040E1F700C00000DDCFE4
:1005D0006D2D70E08F3618F0425850E0ECCF50E0AF
:1005E000C8010E949D04EACFC8010E947F04C8018F
:1005F0000E945B040F90DF91CF911F910F91FF90AC
:10060000EF90DF90089510927C0086E880937A0046
:10061000089510927A00089580917C00807E8093E6
:100620007C0080917C006770682B60937C008091D7
:100630007A00806480937A0080917A0084FFFCCFF6
:1006400080917A00806180937A0020917800809177
:10065000790090E0982F8827820F911D08951092BD
:10066000C5008FEC8093C4001092C00088E1809395
:10067000C1008EE08093C20008959091C00095FD66
:1006800007C0EFE5FAEE3197F1F700C00000F5CFB3
:100690008093C60008950F931F93CF93DF93EC01CF
:1006A0008C01060F111DC017D10721F089910E94FE
:1006B0003D03F9CFDF91CF911F910F910895809164
:1006C000C00087FFFCCF8091C6000895FC017183B4
:1006D000608342835383158214826032710559F41A
:1006E00021B181E090E001C0880F4A95EAF780953A
:1006F000822381B908956332710559F424B181E0F0
:1007000090E001C0880F4A95EAF78095822384B96A
:1007100008956632710559F427B181E090E001C077
:10072000880F4A95EAF78095822387B90895693240
:10073000710551F42AB181E090E001C0880F4A951B
:10074000EAF7809582238AB90895FC0121E030E020
:10075000028002C0220F331F0A94E2F7A081B18108
:100760004C918FE59AEE0197F1F700C000000190DF
:10077000F081E02D908180814223922351E0491342
:1007800050E08223852381700895CF93DF93EC019D
:100790008C819D818230910521F13CF4009779F0A4
:1007A0000197B9F0DF91CF9108950397D9F7CE0162
:1007B0000E94A503811108C01D821C82F3CFCE01C7
:1007C0000E94A503882371F381E090E09D838C83D0
:1007D000E9CFCE010E94A503882341F082E090E09A
:1007E000F5CFCE010E94A5038111DCCF83E090E01C
:1007F000EDCF0E94A50391E089270895109228016A
:10080000109227010C942F03CF93482FC62F60918D
:1008100027017091280186E291E00E94770680917D
:100820002701909128010196909328018093270138
:100830008FE097E20197F1F700C000006091270177
:10084000709128014C2F86E291E00E9477068091FA
:100850002701909128010196909328018093270108
:100860008FE097E20197F1F700C00000CF91089563
:10087000809127010895CF93DF930F92CDB7DEB714
:10088000682F70E0AE014F5F5F4F86E291E00E94FB
:10089000B10589810F90DF91CF910895F89484B1CB
:1008A0008C6384B916BC83EA84BD82E085BD7894EC
:1008B00008950C944E04F89484B1837C84B915BCDB
:1008C00014BC789408952D9817BC2EEF269FC00174
:1008D000279F900D112464E670E00E942F0868BDE8
:1008E00008952A982EEF269FC001279F900D11246E
:1008F00064E670E00E942F0867BD18BC089517BC1D
:1009000018BC0895CF93DF93EA01EEEFE69FC00194
:10091000E79F900D112424E630E0B9010E942F08D2
:1009200067BDEC9FC001ED9F900D1124B9010E949D
:100930002F0868BDDF91CF9108959C0195B19B7DF3
:1009400095B9C9010C9482049C0195B1946295B942
:10095000C9010C9482042A982D9A0C9482042D9833
:100960002A9A0C948204FC0171836083428353832E
:10097000248335836232710589F481B161E070E0CE
:10098000FB0102C0EE0FFF1F2A95E2F78E2B01C07C
:10099000660F4A95EAF7862B81B90895653271058D
:1009A00089F484B161E070E0FB0102C0EE0FFF1F2B
:1009B0002A95E2F78E2B01C0660F4A95EAF7862B3F
:1009C00084B908956832710589F487B161E070E0F7
:1009D000FB0102C0EE0FFF1F2A95E2F78E2B01C02C
:1009E000660F4A95EAF7862B87B908956B32710531
:1009F00081F48AB161E070E0FB0102C0EE0FFF1FDD
:100A00002A95E2F78E2B01C0660F4A95EAF7862BEE
:100A10008AB90895FC01A081B1814C9121E030E0B8
:100A2000C901028002C0880F991F0A94E2F7B90138
:100A3000048002C0660F771F0A94E2F7862B809528
:100A400084238C93A081B1818C91028002C0220FFB
:100A5000331F0A94E2F7282B2C930895FC01A08100
:100A6000B1814C9121E030E0C901028002C0880FC1
:100A7000991F0A94E2F7B901048002C0660F771F3C
:100A80000A94E2F7862B809584238C93A081B18110
:100A90008C91048002C0220F331F0A94E2F7282BA6
:100AA0002C930895EF92FF920F931F93CF93DF93B0
:100AB000D82FC92F7B0110E000E00E151F05BCF4F4
:100AC0008D2F9C2F0E940A058FE097E20197F1F786
:100AD00000C000008D2F9C2F0E942E058FE097E212
:100AE0000197F1F700C000000F5F1F4FE6CFDF91C5
:100AF000CF911F910F91FF90EF900895FC01A0817D
:100B0000B1814C9121E030E0C901028002C0880F20
:100B1000991F0A94E2F7048002C0220F331F0A943F
:100B2000E2F7822B809584238C930895089580EAC0
:100B3000809302011092B90080E28093B80008957A
:100B4000FC0180E88083CF010C949705982F937067
:100B5000891305C0880F806A8093020108958FEF82
:100B60000895FA0194EA24E89093BC008091BC00B7
:100B700087FFFCCF809102018093BB002093BC00D3
:100B80008091BC0087FFFCCF8091B900883161F76C
:100B900084EA8093BC008091BC0087FFFCCF8091E9
:100BA00002018093BB0084E88093BC008091BC006C
:100BB00087FFFCCF7093BB0084E88093BC008091DA
:100BC000BC0087FFFCCF6093BB0084E88093BC002F
:100BD0008091BC0087FFFCCF8091BC0087FFFCCFD9
:100BE00084EA8093BC008091BC0087FFFCCF809199
:100BF00002018F5F8093BB0084E88093BC008091EA
:100C0000BC0087FFFCCF84E88093BC008091BC00CF
:100C100087FFFCCF8091BB00808384E98093BC0078
:100C200080E0089594EA34E89093BC008091BC0081
:100C300087FFFCCF809102018093BB003093BC0002
:100C40008091BC0087FFFCCF8091B900883161F7AB
:100C500084EA8093BC008091BC0087FFFCCF809128
:100C600002018093BB0084E88093BC008091BC00AB
:100C700087FFFCCF7093BB0084E88093BC00809119
:100C8000BC0087FFFCCF6093BB0084E88093BC006E
:100C90008091BC0087FFFCCF84EA8093BC008091E8
:100CA000BC0087FFFCCF809102018F5F8093BB0067
:100CB00084E88093BC008091BC0087FFFCCF84EC6B
:100CC000222381F0213009F484E88093BC009091C4
:100CD000BC0097FFFCCFFA019091BB00919321508B
:100CE000AF01EECF84E98093BC0080E0089594EAE0
:100CF00024E89093BC008091BC0087FFFCCF8091DA
:100D000002018093BB002093BC008091BC0087FF50
:100D1000FCCF8091B900883161F784EA8093BC00F0
:100D20008091BC0087FFFCCF809102018093BB00C3
:100D300084E88093BC008091BC0087FFFCCF709357
:100D4000BB0084E88093BC008091BC0087FFFCCF8F
:100D50006093BB0084E88093BC008091BC0087FF57
:100D6000FCCF4093BB0084E88093BC008091BC0022
:100D700087FFFCCF84E98093BC0080E00895FB01ED
:100D8000260F372F311DDC018C918150990B862B5A
:100D90009F2B2817390718F09C012F5F3F4F822F98
:100DA0008E1B24EA34E82093BC009091BC0097FF8E
:100DB000FCCF909102019093BB003093BC009091C6
:100DC000BC0097FFFCCF9091B900983161F794EA8D
:100DD0009093BC009091BC0097FFFCCF90910201D2
:100DE0009093BB0094E89093BC009091BC0097FF57
:100DF000FCCFF093BB0094E89093BC009091BC00B2
:100E000097FFFCCFE093BB0094E89093BC009091D7
:100E1000BC0097FFFCCF982F24E8992369F0FA01D2
:100E200031913093BB002093BC003091BC0037FF60
:100E3000FCCF9150AF01F1CF94E99093BC0008959D
:100E4000DF92EF92FF920F931F93CF93DF93D82EF1
:100E5000D92F7B018A01C22F2C2FA801B7018D2D1C
:100E60009D2F0E94BF06282F30E0E20EF31EC81B04
:100E7000020F131FC111F0CF80E0DF91CF911F91BE
:100E80000F91FF90EF90DF900895CDB7DEB7609798
:100E90000FB6F894DEBF0FBECDBF0E942F030E9495
:100EA000FE030E949002CE010D960E9403034E01A4
:100EB00087E0880E911C21E030E050E040E065E2E0
:100EC00070E0C4010E94B30450E040E060E270E0D2
:100ED000CE0101965C010E94660381B18D7A81B9D1
:100EE00034E1C32ED12CF12CE12C10E000E0382CA1
:100EF000292CAE86BF8684E00E947800B82E86E05A
:100F00000E9478000B0D111DE80EF11C91E0C91A2A
:100F1000D10889F724E130E0C801B9010E942F0807
:100F20000AE0060F0C3838F0C701B9010E942F08FB
:100F3000665F6C3810F46CE80CE886E0A82EB12CE3
:100F4000CC24C394D12C10E048018EE1880E911C72
:100F5000E62EF12C37019EE1690E711C24E0422E31
:100F6000512CE0912401F0912501E730F105E8F7DB
:100F7000E05CF44F0C9443080E946A00882341F01F
:100F800086E70E941802D0922501C0922401E9CF81
:100F90008E859F850E94F903882319F385E090E0F0
:100FA0009093250180932401DCCF0E94990083E077
:100FB00090E0F6CFB701C8010E942101E4CF81E0A3
:100FC0000E94780084E00E947800888B86E00E946E
:100FD000780098899815190409F024F486151704E7
:100FE00021F01CF082E090E0DBCF0E946A008823B1
:100FF00029F0B0922501A0922401B3CF8E859F8560
:101000000E94F903882309F4ACCF50922501409245
:101010002401A7CF10920001832D922D0E942E054E
:101020000E94F601832D922D0E947E05ACCF0E9476
:10103000A502DFCF832D922D0E940A050E946A002F
:101040008111FCCF10922501109224018ACF86E2F3
:1010500091E00C94A00586E291E00C94960597FB34
:10106000072E16F4009407D077FD09D00E94490896
:1010700007FC05D03EF4909581959F4F089570959B
:1010800061957F4F0895EE0FFF1F0590F491E02DBD
:101090000994AA1BBB1B51E107C0AA1FBB1FA617BF
:1010A000B70710F0A61BB70B881F991F5A95A9F711
:1010B00080959095BC01CD010895AEE0B0E0E3E6E7
:1010C000F8E00C940A0B0D891E8986E08C831A8344
:1010D00009838FEF9FE79E838D83AE01475E5F4F4D
:1010E0006F89788DCE0101960E9480082F81388506
:1010F000020F131FF80110822E96E4E00C94260BC9
:10110000AFE0B0E0E6E8F8E00C94FC0A7C013B01BB
:101110008A01DC0117961C921E92169713968C91E9
:1011200081FFC3C19AE0292EFE0131964F01D701FC
:1011300013969C91F30193FD859193FF81913F015B
:10114000882309F448C1853239F493FD859193FFD2
:1011500081913F01853229F4B70190E00E946E0A27
:10116000E6CFB12C412C512CBFE1B51538F08B32B4
:1011700009F188F4803201F1833221F157FC3AC041
:1011800020ED280F2A3040F556FE1FC0B29C200DDE
:101190001124B22E06C08D3291F0803379F7689415
:1011A00050F8F30193FD859193FF81913F018111E7
:1011B000DBCF20C0689451F8689452F8F2CF68945D
:1011C00053F8EFCF689454F8ECCF429C200D1124D3
:1011D000422E689455F8E5CF8E3229F456FCFBC0B8
:1011E000689456F8DECF8C3619F4689457F8D9CF46
:1011F0008836B9F2982F9F7D95549330C0F083368E
:10120000A1F18337C1F1833509F05BC0D801CD90DE
:10121000DD908D016B2D70E056FC02C06FEF7FEF0B
:10122000C6010E94580A5C01689457F80AC00C5F16
:101230001F4FEFE3E983AA24A394B12C6401E8943F
:1012400057F853FC04C04A141B0409F018F5342C59
:10125000A114B10431F5332009F469CFB70180E25C
:1012600090E00E946E0A3A94F6CFD8018C9189835F
:101270000E5F1F4FE0CFF801C190D1908F016B2D11
:1012800070E056FC02C06FEF7FEFC6010E94630A58
:101290005C01D5CFB70180E290E00E946E0A4A94CB
:1012A000D2CFF60157FC859157FE81916F01B701AE
:1012B00090E00E946E0A31103A94B1E0AB1AB10886
:1012C000C7CF843619F0893609F074C0F80157FE8B
:1012D0006AC061917191819191918F01E52DEF76B5
:1012E000DE2E97FF09C090958095709561957F4F90
:1012F0008F4F9F4F6894D7F82AE030E0A4010E94F6
:101300009E0AC82EC818AC2C5D2CD6FE0CC0E894E2
:1013100050F8CB1440F4D4FE05C0D2FC03C05D2DC0
:101320005E7E552EAB2C54FE98C0FE01EC0DF11DD7
:101330008081803309F08AC0652D697E562E752D17
:101340007870372E53FC98C050FE92C0BC2CA41469
:1013500018F44C0CB42CBA1854FE94C0B70180E3B6
:1013600090E00E946E0A52FE09C088E790E051FEAC
:1013700002C088E590E0B7010E946E0ACB1408F421
:101380008DC0CA94D12C8FEFC81AD80AC80CD91CAA
:10139000D6018E916D01B70190E00E946E0A8C1407
:1013A0009D04B1F758CF61917191072E000C880B05
:1013B000990B93CFD52CE894D4F82AE030E0853708
:1013C00039F1F52DF97FDF2E8037A9F058F48835F3
:1013D000A9F08F36D9F0F701868197812F96E2E147
:1013E0000C94180B8837B9F7D4FE02C06894D2F871
:1013F00020E130E00DC06894D4F8F6CF54FE03C06D
:101400002F2F2660D22E20E132E002C028E030E00B
:10141000F801D7FE15C041915191619171914C87AE
:101420005D876E877F878F01A4016C857D858E85A2
:101430009F850E949E0AC82EC818E894D7F863CFEB
:1014400081919191AC0170E060E0E9CF52FC02C063
:10145000A39475CFA394A39472CF852D867809F4B5
:101460006ECFF6CFB70180E290E00E946E0AA3949F
:10147000A414C0F3312C70CF342C3A18A41408F4FF
:101480006BCFF8CF852D867809F478CF8BE251FEAB
:1014900080E257FC8DE2B70190E06ECFB70180E3A8
:1014A00090E00E946E0ABA9469CF8FEF9FEF96CFBB
:1014B000FC010590615070400110D8F7809590951F
:1014C0008E0F9F1F0895FC01615070400190011024
:1014D000D8F7809590958E0F9F1F08950F931F93B7
:1014E000CF93DF93182F092FEB018B8181FD09C06A
:1014F0001FEF0FEF812F902FDF91CF911F910F9151
:10150000089582FF14C02E813F818C819D81281710
:1015100039073CF4E881F981CF01019699838883EA
:1015200010838E819F8101969F838E83E3CFE88510
:10153000F985812F0995892BA1F3DACFFA01AA2722
:10154000283051F1203181F1E8946F936E7F6E5F06
:101550007F4F8F4F9F4FAF4FB1E03ED0B4E03CD0B4
:10156000670F781F891F9A1FA11D680F791F8A1F97
:10157000911DA11D6A0F711D811D911DA11D20D0FE
:1015800009F468943F912AE0269F11243019305DB8
:101590003193DEF6CF010895462F4770405D4193A9
:1015A000B3E00FD0C9F7F6CF462F4F70405D4A33F6
:1015B00018F0495D31FD4052419302D0A9F7EACFBE
:1015C000B4E0A6959795879577956795BA95C9F7ED
:1015D00000976105710508959B01AC010A2E0694E0
:1015E0005795479537952795BA95C9F7620F731F99
:1015F000841F951FA01D08952F923F924F925F92D6
:101600006F927F928F929F92AF92BF92CF92DF9212
:10161000EF92FF920F931F93CF93DF93CDB7DEB777
:10162000CA1BDB0B0FB6F894DEBF0FBECDBF09940B
:101630002A88398848885F846E847D848C849B8462
:10164000AA84B984C884DF80EE80FD800C811B8170
:10165000AA81B981CE0FD11D0FB6F894DEBF0FBE9F
:10166000CDBFED01089510E0CFE3D0E004C0FE014E
:101670000E9443082196C034D107C9F7F894FFCFE0
:0E168000BC07D507DA07DF070A0817081A08A3
:10168E000101A04C612064697374616E63652073FF
:10169E0075722032353520657374203A202025640A
:0416AE0020200A00EE
:00000001FF
