:100000000C943E000C945B000C945B000C945B0021
:100010000C945B000C945B000C945B000C945B00F4
:100020000C945B000C945B000C945B000C945B00E4
:100030000C945B000C945B000C945B000C945B00D4
:100040000C945B000C945B000C945B000C945B00C4
:100050000C945B000C945B000C945B000C945B00B4
:100060000C945B000C945B000C945B000C945B00A4
:100070000C945B000C945B000C945B0011241FBE7D
:10008000CFEFD8E0DEBFCDBF11E0A0E0B1E0EAE302
:10009000F0E102C005900D92A232B107D9F721E03C
:1000A000A2E2B1E001C01D92A432B207E1F70E94C2
:1000B0004E040C941B080C94000099B1EFE5FAEE85
:1000C0003197F1F700C0000029B192FF02C081E032
:1000D000921380E008950F931F93CF93DF930F92B5
:1000E000CDB7DEB7182FCE0101960E940B02612F0B
:1000F000CE0101960E9414028C01CE0101960E944D
:100100001102C80196958795969587950F90DF9176
:10011000CF911F910F9108957F928F929F92AF92EE
:10012000BF92CF92DF92EF92FF920F931F93CF93E4
:10013000DF93CDB7DEB7E4970FB6F894DEBF0FBEFE
:10014000CDBF6E0184E3C80ED11CC6010E940B0214
:100150007E0193E3E90EF11CC7010E94110381E0C7
:100160000E946B00182F99E3B92E0AE37C2C8D2C8A
:100170009E2CAF2C20E0E22E21E0F22ECE01019643
:100180006C010E945D00811125C01D3308F5B12C62
:10019000183318F089E3B82E0AE34B2D50E0602F96
:1001A00070E0892D9A2D0E94550381E00E946B001A
:1001B000182F1F928F93FF92EF92DF92CF920E949F
:1001C00045050F900F900F900F900F900F90D9CF83
:1001D00000E0E3CF892D9A2D0E941303872D982DDF
:1001E0000E941102E4960FB6F894DEBF0FBECDBF99
:1001F000DF91CF911F910F91FF90EF90DF90CF9003
:10020000BF90AF909F908F907F900895CF93DF9392
:1002100000D0CDB7DEB78C017B01CE0102960E94E3
:100220000B02CE0101966C010E9411030E9437025D
:100230009C2C8D2C84E6782E8FEF90E05C01A01A28
:10024000B10A6C01CE18DF0884E00E946B00682EB2
:1002500086E00E946B00E82F262D30E0F0E00217C8
:10026000130784F49BEEFAE5961560F0201B310B22
:10027000729EC001739E900D1124B5010E941D0550
:10028000FCEEF60F2E2F30E0E216F30684F5EC3E7E
:1002900090F52E193F09729EC001739E900D112496
:1002A000B6010E941D05462FF53050F0FF3198F43D
:1002B00050E06F2F70E0892D982D0E945503C4CF18
:1002C0006F31B0F350E0BA016A507109892D982D51
:1002D0000E946703B9CF653058F74F2F50E0BA013D
:1002E0006A507109892D982D0E946303ADCF40E0BB
:1002F000FF31F0F2F2CF44E6F530D0F6E3CFCF9302
:10030000DF930F92CDB7DEB7CE0101960E941103A5
:1003100041E450E068E570E0CE0101960E9455038B
:100320002FEF87EB98E8215080409040E1F700C024
:100330000000CE0101960E9413030F90DF91CF9130
:100340000895EF92FF920F931F93CF93DF9300D006
:1003500000D000D0CDB7DEB7F82E21E030E050E07D
:1003600040E065E270E08E010F5F1F4FC8010E9400
:100370006B0326E7F2122CC09FE0E92EF12CC80196
:100380000E94E6038FEF90E722E0815090402040EA
:10039000E1F700C00000C8010E9436048FEF90E72B
:1003A00022E0815090402040E1F700C0000081E051
:1003B000E81AF10821F726960FB6F894DEBF0FBEB3
:1003C000CDBFDF91CF911F910F91FF90EF900895D6
:1003D00092E7F912F0CF8FE0E82EF12CC8010E94CD
:1003E000C2032FEF80E792E0215080409040E1F778
:1003F00000C00000C8010E9436042FEF80E792E0A1
:10040000215080409040E1F700C0000021E0E21A56
:10041000F10821F7D0CF10927C0086E880937A0013
:10042000089510927A00089580917C00807E8093D8
:100430007C0080917C006770682B60937C008091C9
:100440007A00806480937A0080917A0084FFFCCFE8
:1004500080917A00806180937A0020917800809169
:10046000790090E0982F8827820F911D08951092AF
:10047000C5008FEC8093C4001092C00088E1809387
:10048000C1008EE08093C20008959091C00095FD58
:1004900007C0EFE5FAEE3197F1F700C00000F5CFA5
:1004A0008093C60008950F931F93CF93DF93EC01C1
:1004B0008C01060F111DC017D10721F089910E94F0
:1004C0004502F9CFDF91CF911F910F91089580914F
:1004D000C00087FFFCCF8091C6000895FC017183A6
:1004E000608342835383158214826032710559F40C
:1004F00021B181E090E001C0880F4A95EAF780952C
:10050000822381B908956332710559F424B181E0E1
:1005100090E001C0880F4A95EAF78095822384B95C
:1005200008956632710559F427B181E090E001C069
:10053000880F4A95EAF78095822387B90895693232
:10054000710551F42AB181E090E001C0880F4A950D
:10055000EAF7809582238AB90895FC0121E030E012
:10056000028002C0220F331F0A94E2F7A081B181FA
:100570004C918FE59AEE0197F1F700C000000190D1
:10058000F081E02D908180814223922351E0491334
:1005900050E08223852381700895CF93DF93EC018F
:1005A0008C819D818230910521F13CF4009779F096
:1005B0000197B9F0DF91CF9108950397D9F7CE0154
:1005C0000E94AD02811108C01D821C82F3CFCE01B2
:1005D0000E94AD02882371F381E090E09D838C83BB
:1005E000E9CFCE010E94AD02882341F082E090E085
:1005F000F5CFCE010E94AD028111DCCF83E090E007
:10060000EDCF0E94AD0291E089270895F89484B15E
:100610008C6384B916BC83EA84BD82E085BD78947E
:1006200008950C940603F89484B1837C84B915BCB6
:1006300014BC789408952D9817BC2EEF269FC00106
:10064000279F900D112464E670E00E941D0568BD8F
:1006500008952A982EEF269FC001279F900D112400
:1006600064E670E00E941D0567BD18BC089517BCC4
:1006700018BC0895CF93DF93EA01EEEFE69FC00127
:10068000E79F900D112424E630E0B9010E941D057A
:1006900067BDEC9FC001ED9F900D1124B9010E9430
:1006A0001D0568BDDF91CF9108959C0195B19B7D9B
:1006B00095B9C9010C943A039C0195B1946295B91E
:1006C000C9010C943A032A982D9A0C943A032D9858
:1006D0002A9A0C943A03FC0171836083428353830A
:1006E000248335836232710589F481B161E070E061
:1006F000FB0102C0EE0FFF1F2A95E2F78E2B01C00F
:10070000660F4A95EAF7862B81B90895653271051F
:1007100089F484B161E070E0FB0102C0EE0FFF1FBD
:100720002A95E2F78E2B01C0660F4A95EAF7862BD1
:1007300084B908956832710589F487B161E070E089
:10074000FB0102C0EE0FFF1F2A95E2F78E2B01C0BE
:10075000660F4A95EAF7862B87B908956B327105C3
:1007600081F48AB161E070E0FB0102C0EE0FFF1F6F
:100770002A95E2F78E2B01C0660F4A95EAF7862B81
:100780008AB90895FC01A081B1814C9121E030E04B
:10079000C901028002C0880F991F0A94E2F7B901CB
:1007A000048002C0660F771F0A94E2F7862B8095BB
:1007B00084238C93A081B1818C91028002C0220F8E
:1007C000331F0A94E2F7282B2C930895FC01A08193
:1007D000B1814C9121E030E0C901028002C0880F54
:1007E000991F0A94E2F7B901048002C0660F771FCF
:1007F0000A94E2F7862B809584238C93A081B181A3
:100800008C91048002C0220F331F0A94E2F7282B38
:100810002C930895EF92FF920F931F93CF93DF9342
:10082000D82FC92F7B0110E000E00E151F05BCF486
:100830008D2F9C2F0E94C2038FE097E20197F1F762
:1008400000C000008D2F9C2F0E94E6038FE097E2EE
:100850000197F1F700C000000F5F1F4FE6CFDF9157
:10086000CF911F910F91FF90EF900895FC01A0810F
:10087000B1814C9121E030E0C901028002C0880FB3
:10088000991F0A94E2F7048002C0220F331F0A94D2
:10089000E2F7822B809584238C930895CDB7DEB741
:1008A00060970FB6F894DEBF0FBECDBF0E9437022F
:1008B000CE010D960E940B024E0187E0880E911C1E
:1008C00021E030E050E040E065E270E0C4010E94C9
:1008D0006B0350E040E060E270E0CE0101965C0105
:1008E0000E946E0281B18D7A81B9F4E1CF2ED12CB4
:1008F00010E000E0F12CE12C1401AF86B88A84E00E
:100900000E946B00B82E86E00E946B00EB0CF11C7D
:10091000080F111D91E0C91AD10889F724E130E0D0
:10092000C701B9010E941D05EAE04E2E460E8BE874
:10093000841550F4C801B9010E941D057AE0572EB4
:10094000560E9BE8951520F04CE8542E5CE8452E99
:10095000CC24C394D12C93E0692E712C042D10E08B
:10096000025E1F4F22E0A22EB12CE52CF12C8EE16D
:10097000E80EF11C34E0832E912C8091220190919D
:1009800023018330910561F1A4F481309105D9F000
:1009900082309105F9F00097A1F70E945D0088234D
:1009A00061F386E70E94A101D0922301C092220147
:1009B000E4CF84309105C1F18530910511F7C10173
:1009C0000E94C203DACF0E948C00709223016092D1
:1009D0002201D3CF652D70E0842D90E00E940601A6
:1009E00081E00E946B0084E00E946B008E8786E0AD
:1009F0000E946B009E859017110609F024F48E1555
:100A00001F0431F02CF0B0922301A0922201B5CF47
:100A10008F8598890E940103882309F4AECF9092B4
:100A2000230180922201A9CFC1010E94E6030E9406
:100A30007F01C1010E943604B7CF97FB072E16F441
:100A4000009407D077FD09D00E94310507FC05D03E
:100A50003EF4909581959F4F0895709561957F4FD5
:100A60000895AA1BBB1B51E107C0AA1FBB1FA617F5
:100A7000B70710F0A61BB70B881F991F5A95A9F747
:100A800080959095BC01CD010895AEE0B0E0EBE417
:100A9000F5E00C94F2070D891E8986E08C831A8399
:100AA00009838FEF9FE79E838D83AE01475E5F4F83
:100AB0006F89788DCE0101960E9468052F81388557
:100AC000020F131FF80110822E96E4E00C940E081A
:100AD000AFE0B0E0EEE6F5E00C94E4077C013B010A
:100AE0008A01DC0117961C921E92169713968C9120
:100AF00081FFC3C19AE0292EFE0131964F01D70133
:100B000013969C91F30193FD859193FF81913F0191
:100B1000882309F448C1853239F493FD859193FF08
:100B200081913F01853229F4B70190E00E94560778
:100B3000E6CFB12C412C512CBFE1B51538F08B32EA
:100B400009F188F4803201F1833221F157FC3AC077
:100B500020ED280F2A3040F556FE1FC0B29C200D14
:100B60001124B22E06C08D3291F0803379F768944B
:100B700050F8F30193FD859193FF81913F0181111D
:100B8000DBCF20C0689451F8689452F8F2CF689493
:100B900053F8EFCF689454F8ECCF429C200D112409
:100BA000422E689455F8E5CF8E3229F456FCFBC0EE
:100BB000689456F8DECF8C3619F4689457F8D9CF7C
:100BC0008836B9F2982F9F7D95549330C0F08336C4
:100BD000A1F18337C1F1833509F05BC0D801CD9015
:100BE000DD908D016B2D70E056FC02C06FEF7FEF42
:100BF000C6010E9440075C01689457F80AC00C5F68
:100C00001F4FEFE3E983AA24A394B12C6401E89475
:100C100057F853FC04C04A141B0409F018F5342C8F
:100C2000A114B10431F5332009F469CFB70180E292
:100C300090E00E9456073A94F6CFD8018C918983B0
:100C40000E5F1F4FE0CFF801C190D1908F016B2D47
:100C500070E056FC02C06FEF7FEFC6010E944B07A9
:100C60005C01D5CFB70180E290E00E9456074A941C
:100C7000D2CFF60157FC859157FE81916F01B701E4
:100C800090E00E94560731103A94B1E0AB1AB108D7
:100C9000C7CF843619F0893609F074C0F80157FEC1
:100CA0006AC061917191819191918F01E52DEF76EB
:100CB000DE2E97FF09C090958095709561957F4FC6
:100CC0008F4F9F4F6894D7F82AE030E0A4010E942C
:100CD0008607C82EC818AC2C5D2CD6FE0CC0E89434
:100CE00050F8CB1440F4D4FE05C0D2FC03C05D2DF7
:100CF0005E7E552EAB2C54FE98C0FE01EC0DF11D0E
:100D00008081803309F08AC0652D697E562E752D4D
:100D10007870372E53FC98C050FE92C0BC2CA4149F
:100D200018F44C0CB42CBA1854FE94C0B70180E3EC
:100D300090E00E94560752FE09C088E790E051FEFD
:100D400002C088E590E0B7010E945607CB1408F472
:100D50008DC0CA94D12C8FEFC81AD80AC80CD91CE0
:100D6000D6018E916D01B70190E00E9456078C1458
:100D70009D04B1F758CF61917191072E000C880B3B
:100D8000990B93CFD52CE894D4F82AE030E085373E
:100D900039F1F52DF97FDF2E8037A9F058F4883529
:100DA000A9F08F36D9F0F701868197812F96E2E17D
:100DB0000C9400088837B9F7D4FE02C06894D2F8C2
:100DC00020E130E00DC06894D4F8F6CF54FE03C0A3
:100DD0002F2F2660D22E20E132E002C028E030E042
:100DE000F801D7FE15C041915191619171914C87E5
:100DF0005D876E877F878F01A4016C857D858E85D9
:100E00009F850E948607C82EC818E894D7F863CF3C
:100E100081919191AC0170E060E0E9CF52FC02C099
:100E2000A39475CFA394A39472CF852D867809F4EB
:100E30006ECFF6CFB70180E290E00E945607A394F0
:100E4000A414C0F3312C70CF342C3A18A41408F435
:100E50006BCFF8CF852D867809F478CF8BE251FEE1
:100E600080E257FC8DE2B70190E06ECFB70180E3DE
:100E700090E00E945607BA9469CF8FEF9FEF96CF0C
:100E8000FC010590615070400110D8F78095909555
:100E90008E0F9F1F0895FC0161507040019001105A
:100EA000D8F7809590958E0F9F1F08950F931F93ED
:100EB000CF93DF93182F092FEB018B8181FD09C0A0
:100EC0001FEF0FEF812F902FDF91CF911F910F9187
:100ED000089582FF14C02E813F818C819D81281747
:100EE00039073CF4E881F981CF0101969983888321
:100EF00010838E819F8101969F838E83E3CFE88547
:100F0000F985812F0995892BA1F3DACFFA01AA2758
:100F1000283051F1203181F1E8946F936E7F6E5F3C
:100F20007F4F8F4F9F4FAF4FB1E03ED0B4E03CD0EA
:100F3000670F781F891F9A1FA11D680F791F8A1FCD
:100F4000911DA11D6A0F711D811D911DA11D20D034
:100F500009F468943F912AE0269F11243019305DEE
:100F60003193DEF6CF010895462F4770405D4193DF
:100F7000B3E00FD0C9F7F6CF462F4F70405D4A332C
:100F800018F0495D31FD4052419302D0A9F7EACFF4
:100F9000B4E0A6959795879577956795BA95C9F723
:100FA00000976105710508959B01AC010A2E069416
:100FB0005795479537952795BA95C9F7620F731FCF
:100FC000841F951FA01D08952F923F924F925F920C
:100FD0006F927F928F929F92AF92BF92CF92DF9249
:100FE000EF92FF920F931F93CF93DF93CDB7DEB7AE
:100FF000CA1BDB0B0FB6F894DEBF0FBECDBF099442
:101000002A88398848885F846E847D848C849B8498
:10101000AA84B984C884DF80EE80FD800C811B81A6
:10102000AA81B981CE0FD11D0FB6F894DEBF0FBED5
:0A103000CDBFED010895F894FFCF45
:10103A004C612064697374616E63652073757220F4
:10104A0032353520657374203A2020256420200A21
:02105A00000094
:00000001FF
