:100000000C9442000C94C3000C946A000C946A0097
:100010000C946A000C946A000C946A000C946A00B8
:100020000C946A000C946A000C946A000C946A00A8
:100030000C946A000C946C000C946A000C946A0096
:100040000C946A000C946A000C946A000C946A0088
:100050000C946A000C946A000C946A000C946A0078
:100060000C946A000C946A000C946A000C946A0068
:100070000C946A000C946A000C946A000F065007F6
:100080001D06540711241FBECFEFD8E0DEBFCDBF41
:1000900011E0A0E0B1E0E2EDF4E102C005900D92C4
:1000A000A236B107D9F721E0A2E6B1E001C01D9266
:1000B000AF36B207E1F710E0C0E4D0E004C021970A
:1000C000FE010E948007CE33D107C9F70E94D104F8
:1000D0000C945C0A0C9400008F9381E080930201E1
:1000E0008F9118950C942402F89410928500109228
:1000F0008400109280008DE08093810082E08093E4
:100100006F008DE093E0909389008093880078944D
:1001100008951F93CF93DF938BE691E00E94F8013F
:100120002FEF89E698E1215080409040E1F700C030
:1001300000000E94B101182FD0E0D117E8F48D2FF4
:1001400090E00E94B401C82F81E08D0F90E00E94E2
:10015000B401DE5F482F50E06C2F70E08BE691E039
:100160000E9416022FEF80E792E0215080409040DD
:10017000E1F700C00000E1CF8BE691E0DF91CF9185
:100180001F910C94F8011F920F920FB60F92112439
:100190002F933F934F935F936F937F938F939F938F
:1001A000AF93BF93EF93FF930E948900FF91EF916C
:1001B000BF91AF919F918F917F916F915F914F917F
:1001C0003F912F910F900FBE0F901F901895109296
:1001D0007C0086E880937A00089510927A00089552
:1001E00080917C00807E80937C0080917C00677091
:1001F000682B60937C0080917A00806480937A0001
:1002000080917A0084FFFCCF80917A008061809396
:100210007A00209178008091790090E0982F8827CB
:10022000820F911D08951092C5008FEC8093C40039
:100230001092C00088E18093C1008EE08093C200DC
:1002400008959091C00095FD07C0EFE5FAEE319753
:10025000F1F700C00000F5CF8093C60008950F931A
:100260001F93CF93DF93EC018C01060F111DC01774
:10027000D10721F089910E942101F9CFDF91CF911F
:100280001F910F9108958091C00087FFFCCF80914E
:10029000C600089510926E0110926D010C94130126
:1002A000CF93482FC62F60916D0170916E018CE63F
:1002B00091E00E94030480916D0190916E0101967E
:1002C00090936E0180936D018FE097E20197F1F7B3
:1002D00000C0000060916D0170916E014C2F8CE6A2
:1002E00091E00E94030480916D0190916E0101964E
:1002F00090936E0180936D018FE097E20197F1F783
:1003000000C00000CF910895FF920F931F93CF93E9
:10031000DF9300D0CDB7DEB7F82E092F162F70E08F
:10032000AE014E5F5F4F8CE691E00E943D031F5F80
:10033000612F70E0AE014F5F5F4F8CE691E00E944D
:100340003D03498150E06A8170E08F2D902F0E941B
:1003500016020F900F90DF91CF911F910F91FF9098
:10036000089580916D010895CF93DF930F92CDB7DB
:10037000DEB7682F70E0AE014F5F5F4F8CE691E013
:100380000E943D0389810F90DF91CF910895F894E9
:1003900084B18C6384B916BC83EA84BD82E085BDD8
:1003A000789408950C94C701F89484B1837C84B93F
:1003B00015BC14BC789408952D9817BC2EEF269F79
:1003C000C001279F900D112464E670E00E94580739
:1003D00068BD08952A982EEF269FC001279F900D93
:1003E000112464E670E00E94580767BD18BC0895A8
:1003F00017BC18BC0895CF93DF93EA01EEEFE69F98
:10040000C001E79F900D112424E630E0B9010E945D
:10041000580767BDEC9FC001ED9F900D1124B901F5
:100420000E94580768BDDF91CF9108959C0195B156
:100430009B7D95B9C9010C94FB019C0195B1946217
:1004400095B9C9010C94FB01F894E89AE9E6F0E04B
:1004500080818260808378940895F894E99AE9E62F
:10046000F0E080818860808378940895F894EA9A17
:10047000E9E6F0E080818062808378940895FC0151
:100480007183608342835383248335836232710591
:1004900089F481B161E070E0FB0102C0EE0FFF1F43
:1004A0002A95E2F78E2B01C0660F4A95EAF7862B54
:1004B00081B908956532710589F484B161E070E015
:1004C000FB0102C0EE0FFF1F2A95E2F78E2B01C041
:1004D000660F4A95EAF7862B84B90895683271054C
:1004E00089F487B161E070E0FB0102C0EE0FFF1FED
:1004F0002A95E2F78E2B01C0660F4A95EAF7862B04
:1005000087B908956B32710581F48AB161E070E0BA
:10051000FB0102C0EE0FFF1F2A95E2F78E2B01C0F0
:10052000660F4A95EAF7862B8AB90895FC01A081E7
:10053000B1814C9121E030E0C901028002C0880FF6
:10054000991F0A94E2F7B901048002C0660F771F71
:100550000A94E2F7862B809584238C93A081B18145
:100560008C91028002C0220F331F0A94E2F7282BDD
:100570002C930895FC01A081B1814C9121E030E0E1
:10058000C901028002C0880F991F0A94E2F7B901DD
:10059000048002C0660F771F0A94E2F7862B8095CD
:1005A00084238C93A081B1818C91048002C0220F9E
:1005B000331F0A94E2F7282B2C930895EF92FF92B1
:1005C0000F931F93CF93DF93D82FC92F7B0110E098
:1005D00000E00E151F05BCF48D2F9C2F0E94960283
:1005E0008FE097E20197F1F700C000008D2F9C2F5C
:1005F0000E94BA028FE097E20197F1F700C0000075
:100600000F5F1F4FE6CFDF91CF911F910F91FF90AA
:10061000EF900895FC01A081B1814C9121E030E080
:10062000C901028002C0880F991F0A94E2F7048072
:1006300002C0220F331F0A94E2F7822B8095842395
:100640008C930895089580EA809303011092B90075
:1006500080E28093B8000895FC0180E88083CF0198
:100660000C942303982F9370891305C0880F806A18
:100670008093030108958FEF0895FA0194EA24E826
:100680009093BC008091BC0087FFFCCF8091030158
:100690008093BB002093BC008091BC0087FFFCCFFF
:1006A0008091B900883161F784EA8093BC00809121
:1006B000BC0087FFFCCF809103018093BB0084E8DE
:1006C0008093BC008091BC0087FFFCCF7093BB007F
:1006D00084E88093BC008091BC0087FFFCCF6093CE
:1006E000BB0084E88093BC008091BC0087FFFCCFF6
:1006F0008091BC0087FFFCCF84EA8093BC0080918E
:10070000BC0087FFFCCF809103018F5F8093BB000B
:1007100084E88093BC008091BC0087FFFCCF84E814
:100720008093BC008091BC0087FFFCCF8091BB0010
:10073000808384E98093BC0080E0089594EA34E8E3
:100740009093BC008091BC0087FFFCCF8091030197
:100750008093BB003093BC008091BC0087FFFCCF2E
:100760008091B900883161F784EA8093BC00809160
:10077000BC0087FFFCCF809103018093BB0084E81D
:100780008093BC008091BC0087FFFCCF7093BB00BE
:1007900084E88093BC008091BC0087FFFCCF60930D
:1007A000BB0084E88093BC008091BC0087FFFCCF35
:1007B00084EA8093BC008091BC0087FFFCCF8091CD
:1007C00003018F5F8093BB0084E88093BC0080911D
:1007D000BC0087FFFCCF84EC222381F0213009F498
:1007E00084E88093BC009091BC0097FFFCCFFA0195
:1007F0009091BB0091932150AF01EECF84E980939B
:10080000BC0080E0089594EA24E89093BC008091B5
:10081000BC0087FFFCCF809103018093BB00209335
:10082000BC008091BC0087FFFCCF8091B90088316B
:1008300061F784EA8093BC008091BC0087FFFCCF05
:10084000809103018093BB0084E88093BC00809179
:10085000BC0087FFFCCF7093BB0084E88093BC0092
:100860008091BC0087FFFCCF6093BB0084E880933D
:10087000BC008091BC0087FFFCCF4093BB0084E8A4
:100880008093BC008091BC0087FFFCCF84E98093FB
:10089000BC0080E00895FB01260F372F311DDC01DD
:1008A0008C918150990B862B9F2B2817390718F0B4
:1008B0009C012F5F3F4F822F8E1B24EA34E8209348
:1008C000BC009091BC0097FFFCCF909103019093E6
:1008D000BB003093BC009091BC0097FFFCCF90917F
:1008E000B900983161F794EA9093BC009091BC00F4
:1008F00097FFFCCF909103019093BB0094E89093F5
:10090000BC009091BC0097FFFCCFF093BB0094E833
:100910009093BC009091BC0097FFFCCFE093BB008C
:1009200094E89093BC009091BC0097FFFCCF982F67
:1009300024E8992369F0FA0131913093BB002093A8
:10094000BC003091BC0037FFFCCF9150AF01F1CF1C
:1009500094E99093BC000895DF92EF92FF920F9379
:100960001F93CF93DF93D82ED92F7B018A01C22FFB
:100970002C2FA801B7018D2D9D2F0E944B04282FED
:1009800030E0E20EF31EC81B020F131FC111F0CF9F
:1009900080E0DF91CF911F910F91FF90EF90DF905A
:1009A0000895CDB7DEB7CD5CD1090FB6F894DEBFA0
:1009B0000FBECDBF0E9424020E9413010E944A0173
:1009C0000E9474008FEF84B911B88E0107531F4F36
:1009D000C8010E94E70064E0C8010E94F00066E0E0
:1009E000C8010E94F0001092690110926801FAE0BB
:1009F000AF2EB12CD12CC12C502E412EA4E06A2E4A
:100A0000A1E07A2ECE0101964C0164E0852D942D53
:100A10000E94F0007C0166E0852D942D0E94F0007C
:100A20008C0116950795169507951127F694E7946E
:100A3000F694E794FF241F930F93FF92EF927F9217
:100A40006F929F928F920E948607E00EF11ECE0C4D
:100A5000DF1C91E0A91AB1080FB6F894DEBF0FBEF3
:100A6000CDBF99F6C601DD0CAA0BBB0BC653DF4FF9
:100A700088839983AA83BB83CA5CD040BC01CD0123
:100A80000E94C40620E030E040EA51E4C653DF4F44
:100A90006883CA5CD040C553DF4F7883CB5CD040BD
:100AA000C453DF4F8883CC5CD040C353DF4F98835F
:100AB000CD5CD040C653DF4F688179818A819B81AC
:100AC000CA5CD0400E942106C653DF4F6883CA5CCF
:100AD000D040C553DF4F7883CB5CD040C453DF4F49
:100AE0008883CC5CD040C353DF4F9883CD5CD0402B
:100AF000C653DF4F688179818A819B81CA5CD0406F
:100B00000E949306762EC62ED12C1F926F938DE2F3
:100B100091E09F938F93CE018B599F4F9F938F931B
:100B20000E9486070F900F900F900F900F900F90DC
:100B300054E6652E8FEF90E07C01EC18FD0866E42A
:100B4000A62E61E0B62E64E0852D942D0E94F00063
:100B50008C0166E0852D942D0E94F0001695079576
:100B6000169507959C013695279536952795422F22
:100B70007016C8F110926901741608F442C0109200
:100B800068014091680150E06091690170E08BE676
:100B900091E00E94160280910201882381F0609109
:100BA0006801809169010E945001809169010E9451
:100BB0002101809168010E9421011092020180911F
:100BC00068011F928F93809169011F928F93BF924A
:100BD000AF929F928F920E9486070FB6F894DEBF65
:100BE0000FBECDBFB0CF11270C191D09609EC001EB
:100BF000619E900D1124B7010E945807609369010E
:100C0000BBCF33272C193D09629EC001639E900D16
:100C10001124B7010E94580760936801B2CF8BE698
:100C200091E00E94D20121E030E050E040E062E239
:100C300070E082E691E00C943F028BE691E00C9428
:100C4000D4010E9435060C9416070E940F0758F035
:100C50000E94080740F029F45F3F29F00C94FF063A
:100C600051110C944A070C9405070E94270768F35A
:100C70009923B1F3552391F3951B550BBB27AA2755
:100C800062177307840738F09F5F5F4F220F331F8F
:100C9000441FAA1FA9F335D00E2E3AF0E0E832D057
:100CA00091505040E695001CCAF72BD0FE2F29D05A
:100CB000660F771F881FBB1F261737074807AB072C
:100CC000B0E809F0BB0B802DBF01FF2793585F4FA1
:100CD0003AF09E3F510578F00C94FF060C944A07B9
:100CE0005F3FE4F3983ED4F3869577956795B79583
:100CF000F7959F5FC9F7880F911D9695879597F98E
:100D00000895E1E0660F771F881FBB1F6217730706
:100D10008407BA0720F0621B730B840BBA0BEE1F1B
:100D200088F7E09508950E942F0788F09F5798F064
:100D3000B92F9927B751B0F0E1F0660F771F881FE0
:100D4000991F1AF0BA95C9F714C0B13091F00E94FA
:100D50004907B1E008950C944907672F782F882739
:100D6000B85F39F0B93FCCF3869577956795B39521
:100D7000D9F73EF490958095709561957F4F8F4F90
:100D80009F4F0895E89409C097FB3EF49095809595
:100D9000709561957F4F8F4F9F4F9923A9F0F92F41
:100DA00096E9BB279395F695879577956795B795BF
:100DB000F111F8CFFAF4BB0F11F460FF1BC06F5FA5
:100DC0007F4F8F4F9F4F16C0882311F096E911C0B7
:100DD000772321F09EE8872F762F05C0662371F0D8
:100DE00096E8862F70E060E02AF09A95660F771FEC
:100DF000881FDAF7880F9695879597F9089597F9E0
:100E00009F6780E870E060E008959FEF80EC0895B0
:100E100000240A94161617061806090608950024D9
:100E20000A9412161306140605060895092E039453
:100E3000000C11F4882352F0BB0F40F4BF2B11F4C7
:100E400060FF04C06F5F7F4F8F4F9F4F089557FD26
:100E50009058440F551F59F05F3F71F04795880F28
:100E600097FB991F61F09F3F79F0879508951216BF
:100E700013061406551FF2CF4695F1DF08C016166B
:100E800017061806991FF1CF86957105610508941C
:100E90000895E894BB2766277727CB0197F9089533
:100EA0008CE691E00C942C038CE691E00C942203E8
:100EB00097FB072E16F4009407D077FD09D00E9407
:100EC0006C0707FC05D03EF4909581959F4F0895DF
:100ED000709561957F4F0895AA1BBB1B51E107C018
:100EE000AA1FBB1FA617B70710F0A61BB70B881FBA
:100EF000991F5A95A9F780959095BC01CD01089549
:100F0000EE0FFF1F0590F491E02D0994AEE0B0E0E4
:100F1000ECE8F7E00C94330A0D891E8986E08C8397
:100F20001A8309838FEF9FE79E838D83AE01475E0F
:100F30005F4F6F89788DCE0101960E94A9072F819E
:100F40003885020F131FF80110822E96E4E00C94EE
:100F50004F0AAFE0B0E0EFEAF7E00C94250A7C011D
:100F60003B018A01DC0117961C921E92169713967C
:100F70008C9181FFC3C19AE0292EFE0131964F0169
:100F8000D70113969C91F30193FD859193FF819175
:100F90003F01882309F448C1853239F493FD8591D6
:100FA00093FF81913F01853229F4B70190E00E94BF
:100FB0009709E6CFB12C412C512CBFE1B51538F083
:100FC0008B3209F188F4803201F1833221F157FC30
:100FD0003AC020ED280F2A3040F556FE1FC0B29CC3
:100FE000200D1124B22E06C08D3291F0803379F796
:100FF000689450F8F30193FD859193FF81913F012F
:101000008111DBCF20C0689451F8689452F8F2CF78
:10101000689453F8EFCF689454F8ECCF429C200DBD
:101020001124422E689455F8E5CF8E3229F456FCEF
:10103000FBC0689456F8DECF8C3619F4689457F8E4
:10104000D9CF8836B9F2982F9F7D95549330C0F050
:101050008336A1F18337C1F1833509F05BC0D80134
:10106000CD90DD908D016B2D70E056FC02C06FEFCE
:101070007FEFC6010E9481095C01689457F80AC09D
:101080000C5F1F4FEFE3E983AA24A394B12C640102
:10109000E89457F853FC04C04A141B0409F018F5EF
:1010A000342CA114B10431F5332009F469CFB70110
:1010B00080E290E00E9497093A94F6CFD8018C9193
:1010C00089830E5F1F4FE0CFF801C190D1908F014F
:1010D0006B2D70E056FC02C06FEF7FEFC6010E94DF
:1010E0008C095C01D5CFB70180E290E00E9497099E
:1010F0004A94D2CFF60157FC859157FE81916F013A
:10110000B70190E00E94970931103A94B1E0AB1A10
:10111000B108C7CF843619F0893609F074C0F801D8
:1011200057FE6AC061917191819191918F01E52D76
:10113000EF76DE2E97FF09C09095809570956195AA
:101140007F4F8F4F9F4F6894D7F82AE030E0A4017B
:101150000E94C709C82EC818AC2C5D2CD6FE0CC046
:10116000E89450F8CB1440F4D4FE05C0D2FC03C080
:101170005D2D5E7E552EAB2C54FE98C0FE01EC0D0D
:10118000F11D8081803309F08AC0652D697E562E5D
:10119000752D7870372E53FC98C050FE92C0BC2C31
:1011A000A41418F44C0CB42CBA1854FE94C0B70113
:1011B00080E390E00E94970952FE09C088E790E022
:1011C00051FE02C088E590E0B7010E949709CB1458
:1011D00008F48DC0CA94D12C8FEFC81AD80AC80C55
:1011E000D91CD6018E916D01B70190E00E9497093C
:1011F0008C149D04B1F758CF61917191072E000CAA
:10120000880B990B93CFD52CE894D4F82AE030E0E2
:10121000853739F1F52DF97FDF2E8037A9F058F4A5
:101220008835A9F08F36D9F0F701868197812F96FE
:10123000E2E10C94410A8837B9F7D4FE02C0689401
:10124000D2F820E130E00DC06894D4F8F6CF54FE17
:1012500003C02F2F2660D22E20E132E002C028E00A
:1012600030E0F801D7FE15C0419151916191719123
:101270004C875D876E877F878F01A4016C857D8594
:101280008E859F850E94C709C82EC818E894D7F894
:1012900063CF81919191AC0170E060E0E9CF52FCA5
:1012A00002C0A39475CFA394A39472CF852D8678A2
:1012B00009F46ECFF6CFB70180E290E00E94970963
:1012C000A394A414C0F3312C70CF342C3A18A41476
:1012D00008F46BCFF8CF852D867809F478CF8BE2B0
:1012E00051FE80E257FC8DE2B70190E06ECFB7016E
:1012F00080E390E00E949709BA9469CF8FEF9FEF47
:1013000096CFFC010590615070400110D8F7809590
:1013100090958E0F9F1F0895FC01615070400190C1
:101320000110D8F7809590958E0F9F1F08950F9309
:101330001F93CF93DF93182F092FEB018B8181FD32
:1013400009C01FEF0FEF812F902FDF91CF911F91D9
:101350000F91089582FF14C02E813F818C819D8161
:10136000281739073CF4E881F981CF010196998368
:10137000888310838E819F8101969F838E83E3CF24
:10138000E885F985812F0995892BA1F3DACFFA0138
:10139000AA27283051F1203181F1E8946F936E7FB4
:1013A0006E5F7F4F8F4F9F4FAF4FB1E03ED0B4E0A5
:1013B0003CD0670F781F891F9A1FA11D680F791FE6
:1013C0008A1F911DA11D6A0F711D811D911DA11DF7
:1013D00020D009F468943F912AE0269F1124301907
:1013E000305D3193DEF6CF010895462F4770405DA2
:1013F0004193B3E00FD0C9F7F6CF462F4F70405D51
:101400004A3318F0495D31FD4052419302D0A9F7AB
:10141000EACFB4E0A6959795879577956795BA95A5
:10142000C9F700976105710508959B01AC010A2E6B
:1014300006945795479537952795BA95C9F7620F42
:10144000731F841F951FA01D08952F923F924F92E6
:101450005F926F927F928F929F92AF92BF92CF9244
:10146000DF92EF92FF920F931F93CF93DF93CDB74D
:10147000DEB7CA1BDB0B0FB6F894DEBF0FBECDBFC5
:1014800009942A88398848885F846E847D848C8496
:101490009B84AA84B984C884DF80EE80FD800C819F
:1014A0001B81AA81B981CE0FD11D0FB6F894DEBF82
:1014B0000FBECDBFED01089510E0C0E4D0E004C040
:1014C000FE010E9480072196C234D107C9F7F89423
:0214D000FFCF4C
:1014D200020101A072656164696E674C65667420E1
:1014E2003A202564202020202072656164696E679D
:1014F2005269676874203A2025640A0A00496E74AA
:101502006573697465206C756D69657265206573B4
:10151200742025640A00704C656674203A202564A4
:101522002020202020705269676874203A202564A8
:021532000A00AD
:00000001FF
