:100000000C943E000C9453000C9453000C94530039
:100010000C9453000C9453000C9453000C94530014
:100020000C9453000C9453000C9453000C94530004
:100030000C9453000C9453000C9453000C945300F4
:100040000C9453000C9453000C9453000C945300E4
:100050000C9453000C9453000C9453000C945300D4
:100060000C9453000C9453000C9453000C945300C4
:100070000C9453000C9453000C94530011241FBE95
:10008000CFEFD8E0DEBFCDBF11E0A0E0B1E0E4E902
:10009000F1E002C005900D92AE32B107D9F70E948F
:1000A00055000C94C8000C940000CDB7DEB7AE9795
:1000B0000FB6F894DEBF0FBECDBF8FEF81B9609150
:1000C0000000709101004EE250E080E091E00E945B
:1000D000B0008FE59AEE0197F1F700C00000109292
:1000E0000100109200004EE250E070E060E0CE01AE
:1000F00001960E94A0008FE59AEE0197F1F700C0EB
:100100000000BE016F5F7F4F80E091E00E9497008A
:10011000892B59F481E082B990E080E0AE960FB669
:10012000F894DEBF0FBECDBF089582E0F4CFFB018F
:10013000DC018D91019080190110D9F3990B08957C
:10014000DC01CB01FC01F999FECF06C0F2BDE1BD97
:10015000F89A319600B40D9241505040B8F7089586
:10016000DC01CB0103C02D910E94BB0041505040E7
:10017000D0F70895262FF999FECF1FBA92BD81BD01
:1001800020BD0FB6F894FA9AF99A0FBE0196089519
:04019000F894FFCF11
:100194002A502A4F2A4C2A592A542A452A432A48A3
:1001A4002A4E2A492A512A552A452A202A4D2A4FBD
:0E01B4002A4E2A542A522A452A412A4C2A0051
:00000001FF
