:100000000C943E000C9453000C9453000C94530039
:100010000C9453000C9453000C9453000C94530014
:100020000C9453000C9453000C9453000C94530004
:100030000C9453000C9453000C9453000C945300F4
:100040000C9453000C9453000C9453000C945300E4
:100050000C9453000C9453000C9453000C945300D4
:100060000C9453000C9453000C9453000C945300C4
:100070000C9453000C9453000C94530011241FBE95
:10008000CFEFD8E0DEBFCDBF11E0A0E0B1E0ECE4FF
:10009000F1E002C005900D92A631B107D9F70E9498
:1000A00072000C94A4000C9400001092C5008FEC18
:1000B0008093C40080E28093C00088E18093C100F7
:1000C00086E08093C20008959091C00095FD07C01E
:1000D000EFE5FAEE3197F1F700C00000F5CF80931D
:1000E000C6000895CDB7DEB765970FB6F894DEBFAA
:1000F0000FBECDBF0E94550025E1E0E0F1E0CE014A
:100100000196DC0101900D922A95E1F724E6F22E8A
:10011000E82EB92E6E0185E1C80ED11C0E2D1B2DC7
:10012000F80181918F010E9464000C151D05C1F733
:10013000FA94F110F3CF90E080E065960FB6F89452
:0C014000DEBF0FBECDBF0895F894FFCFC6
:10014C004C6520726F626F7420656E20494E46318B
:06015C003930300A0000FA
:00000001FF
