:100000000C943E000C9448000C9448000C9448005A
:100010000C9448000C9448000C9448000C94480040
:100020000C9448000C9448000C9448000C94480030
:100030000C9448000C9448000C9448000C94480020
:100040000C9448000C9448000C9448000C94480010
:100050000C9448000C9448000C9448000C94480000
:100060000C9448000C9448000C9448000C944800F0
:100070000C9448000C9448000C94480011241FBEB6
:10008000CFEFD8E0DEBFCDBF0E946E000C94A3007E
:100090000C9400001092C5008FEC8093C40080E2A5
:1000A0008093C00088E18093C10086E08093C20005
:1000B00008959091C00095FD03C08093C600F9CFCC
:1000C0008FE59AEE0197F1F700C000000895809146
:1000D000C00087FFFCCF8091C6000895CDB7DEB782
:1000E000C456D1090FB6F894DEBF0FBECDBF0E9433
:1000F0004A001A821982FE01339682E6DF011D92C0
:100100008A95E9F70E94670089838F3FD9F714E643
:100110006E01B5E1CB0ED11CFE0131967F01D701F6
:100120008D917D010E945900EC14FD04C1F711501E
:1001300099F790E080E0CC59DF4F0FB6F894DEBF1E
:0A0140000FBECDBF0895F894FFCF65
:00000001FF
