:100000000C943E000C9448000C9448000C9448005A
:100010000C9448000C9448000C9448000C94480040
:100020000C9448000C9448000C9448000C94480030
:100030000C9448000C9448000C9448000C94480020
:100040000C9448000C9448000C9448000C94480010
:100050000C9448000C9448000C9448000C94480000
:100060000C9448000C9448000C9448000C944800F0
:100070000C9448000C9448000C94480011241FBEB6
:10008000CFEFD8E0DEBFCDBF0E9462000C94A2008B
:100090000C94000064E60E9496002EEF829FC0013F
:1000A0001124909389008093880090938B00809313
:1000B0008A0083EA8093800082E08093810010921E
:1000C000820008958FEF84B98AB984E60E944A00BD
:1000D0002FEF83ED90E3215080409040E1F700C086
:1000E00000008BE40E944A002FEF83ED90E3215043
:1000F00080409040E1F700C0000082E30E944A0087
:100100002FEF83ED90E3215080409040E1F700C055
:10011000000089E10E944A002FEF83ED90E3215017
:1001200080409040E1F700C00000CFCF991B79E0FC
:1001300004C0991F961708F0961B881F7A95C9F777
:0801400080950895F894FFCFAB
:00000001FF
