:100000000C943E000C9453000C9453000C94530039
:100010000C9453000C9453000C9453000C94530014
:100020000C9453000C9453000C9453000C94530004
:100030000C9453000C9453000C9453000C945300F4
:100040000C9453000C9453000C9453000C945300E4
:100050000C9453000C9453000C9453000C945300D4
:100060000C9453000C9453000C9453000C945300C4
:100070000C9453000C9453000C94530011241FBE95
:10008000CFEFD8E0DEBFCDBF11E0A0E0B1E0E0E20D
:10009000F5E002C005900D92A230B107D9F70E9499
:1000A0004D020C948E020C940000089580EA809317
:1000B00000011092B90080E28093B8000895FC011D
:1000C00080E88083CF010C945600982F9370891399
:1000D00005C0880F806A8093000108958FEF08950E
:1000E000FA0194EA24E89093BC008091BC0087FF59
:1000F000FCCF809100018093BB002093BC008091D5
:10010000BC0087FFFCCF8091B900883161F784EA99
:100110008093BC008091BC0087FFFCCF80910001E0
:100120008093BB0084E88093BC008091BC0087FF73
:10013000FCCF7093BB0084E88093BC008091BC002E
:1001400087FFFCCF6093BB0084E88093BC00809164
:10015000BC0087FFFCCF8091BC0087FFFCCF84EA06
:100160008093BC008091BC0087FFFCCF8091000190
:100170008F5F8093BB0084E88093BC008091BC00BB
:1001800087FFFCCF84E88093BC008091BC0087FF90
:10019000FCCF8091BB00808384E98093BC0080E029
:1001A000089594EA34E89093BC008091BC0087FFE6
:1001B000FCCF809100018093BB003093BC00809104
:1001C000BC0087FFFCCF8091B900883161F784EAD9
:1001D0008093BC008091BC0087FFFCCF8091000120
:1001E0008093BB0084E88093BC008091BC0087FFB3
:1001F000FCCF7093BB0084E88093BC008091BC006E
:1002000087FFFCCF6093BB0084E88093BC008091A3
:10021000BC0087FFFCCF84EA8093BC008091BC00C7
:1002200087FFFCCF809100018F5F8093BB0084E843
:100230008093BC008091BC0087FFFCCF84EC22231C
:1002400081F0213009F484E88093BC009091BC00D7
:1002500097FFFCCFFA019091BB0091932150AF0121
:10026000EECF84E98093BC0080E0089594EA24E80E
:100270009093BC008091BC0087FFFCCF809100016F
:100280008093BB002093BC008091BC0087FFFCCF13
:100290008091B900883161F784EA8093BC00809135
:1002A000BC0087FFFCCF809100018093BB0084E8F5
:1002B0008093BC008091BC0087FFFCCF7093BB0093
:1002C00084E88093BC008091BC0087FFFCCF6093E2
:1002D000BB0084E88093BC008091BC0087FFFCCF0A
:1002E0004093BB0084E88093BC008091BC0087FFF2
:1002F000FCCF84E98093BC0080E00895FB01260FC9
:10030000372F311DDC018C918150990B862B9F2B4F
:100310002817390718F09C012F5F3F4F822F8E1B43
:1003200024EA34E82093BC009091BC0097FFFCCFF6
:10033000909100019093BB003093BC009091BC0061
:1003400097FFFCCF9091B900983161F794EA9093B0
:10035000BC009091BC0097FFFCCF9091000190935E
:10036000BB0094E89093BC009091BC0097FFFCCF39
:10037000F093BB0094E89093BC009091BC0097FF71
:10038000FCCFE093BB0094E89093BC009091BC003C
:1003900097FFFCCF982F24E8992369F0FA01319157
:1003A0003093BB002093BC003091BC0037FFFCCFE2
:1003B0009150AF01F1CF94E99093BC000895DF9282
:1003C000EF92FF920F931F93CF93DF93D82ED92FE5
:1003D0007B018A01C22F2C2FA801B7018D2D9D2FE3
:1003E0000E947E01282F30E0E20EF31EC81B020F90
:1003F000131FC111F0CF80E0DF91CF911F910F91BA
:10040000FF90EF90DF9008951092C5008FEC8093DD
:10041000C4001092C00088E18093C1008EE08093F8
:10042000C20008959091C00095FD07C0EFE5FAEE77
:100430003197F1F700C00000F5CF8093C600089512
:100440000F931F93CF93DF93EC018C01060F111DC7
:10045000C017D10721F089910E941202F9CFDF91D4
:10046000CF911F910F9108951F93CF93DF93EC01CC
:10047000162FCE010E948602811721F00E941202DF
:100480002196F7CFDF91CF911F9108958091C00001
:1004900087FFFCCF8091C60008950F92CDB7DEB7DD
:1004A0008FEF81B981E082B9CE0101967C010E9473
:1004B0005F000E9404020E944602082F0E9446022A
:1004C00010E0102F0027080F111DD12CC12C025055
:1004D0001109C016D10688F40E944602482FB601C1
:1004E000C7010E94360181EE94E00197F1F700C048
:1004F00000009FEFC91AD90AECCF82E082B9C70188
:100500000E94550090E080E00F900895F999FECF89
:1005100092BD81BDF89A992780B50895F894FFCFD0
:02052000A00039
:00000001FF
