:100000000C943E000C945B000C945B000C945B0021
:100010000C945B000C945B000C945B000C945B00F4
:100020000C945B000C945B000C945B000C945B00E4
:100030000C945B000C945B000C945B000C945B00D4
:100040000C945B000C945B000C945B000C945B00C4
:100050000C945B000C945B000C945B000C945B00B4
:100060000C945B000C945B000C945B000C945B00A4
:100070000C945B000C945B000C945B0011241FBE7D
:10008000CFEFD8E0DEBFCDBF11E0A0E0B1E0E8EAFD
:10009000F4E002C005900D92A230B107D9F721E03B
:1000A000A2E0B1E001C01D92A430B207E1F70E94C6
:1000B00025020C9452020C9400001092C5008FECA3
:1000C0008093C400E0ECF0E0108280818166808340
:1000D00088EF8093C10086E08093C20008959091DC
:1000E000C00095FFFCCF8093C6000895089580EA74
:1000F000809301011092B90080E28093B8000895C6
:10010000FC0180E88083CF010C947700982F9370D6
:10011000891305C0880F806A8093010108958FEFCD
:100120000895FA0194EA24E89093BC008091BC0001
:1001300087FFFCCF809101018093BB002093BC001E
:100140008091BC0087FFFCCF8091B900883161F7B6
:1001500084EA8093BC008091BC0087FFFCCF809133
:1001600001018093BB0084E88093BC008091BC00B7
:1001700087FFFCCF7093BB0084E88093BC00809124
:10018000BC0087FFFCCF6093BB0084E88093BC0079
:100190008091BC0087FFFCCF8091BC0087FFFCCF23
:1001A00084EA8093BC008091BC0087FFFCCF8091E3
:1001B00001018F5F8093BB0084E88093BC00809135
:1001C000BC0087FFFCCF84E88093BC008091BC001A
:1001D00087FFFCCF8091BB00808384E98093BC00C3
:1001E00080E0089594EA34E89093BC008091BC00CC
:1001F00087FFFCCF809101018093BB003093BC004E
:100200008091BC0087FFFCCF8091B900883161F7F5
:1002100084EA8093BC008091BC0087FFFCCF809172
:1002200001018093BB0084E88093BC008091BC00F6
:1002300087FFFCCF7093BB0084E88093BC00809163
:10024000BC0087FFFCCF6093BB0084E88093BC00B8
:100250008091BC0087FFFCCF84EA8093BC00809132
:10026000BC0087FFFCCF809101018F5F8093BB00B2
:1002700084E88093BC008091BC0087FFFCCF84ECB5
:10028000222381F0213009F484E88093BC0090910E
:10029000BC0097FFFCCFFA019091BB0091932150D5
:1002A000AF01EECF84E98093BC0080E0089594EA2A
:1002B00024E89093BC008091BC0087FFFCCF809124
:1002C00001018093BB002093BC008091BC0087FF9C
:1002D000FCCF8091B900883161F784EA8093BC003B
:1002E0008091BC0087FFFCCF809101018093BB000F
:1002F00084E88093BC008091BC0087FFFCCF7093A2
:10030000BB0084E88093BC008091BC0087FFFCCFD9
:100310006093BB0084E88093BC008091BC0087FFA1
:10032000FCCF4093BB0084E88093BC008091BC006C
:1003300087FFFCCF84E98093BC0080E00895FB0137
:10034000260F372F311DDC018C918150990B862BA4
:100350009F2B2817390718F09C012F5F3F4F822FE2
:100360008E1B24EA34E82093BC009091BC0097FFD8
:10037000FCCF909101019093BB003093BC00909111
:10038000BC0097FFFCCF9091B900983161F794EAD7
:100390009093BC009091BC0097FFFCCF909101011D
:1003A0009093BB0094E89093BC009091BC0097FFA1
:1003B000FCCFF093BB0094E89093BC009091BC00FC
:1003C00097FFFCCFE093BB0094E89093BC00909122
:1003D000BC0097FFFCCF982F24E8992369F0FA011D
:1003E00031913093BB002093BC003091BC0037FFAB
:1003F000FCCF9150AF01F1CF94E99093BC000895E8
:10040000DF92EF92FF920F931F93CF93DF93D82E3B
:10041000D92F7B018A01C22F2C2FA801B7018D2D66
:100420009D2F0E949F01282F30E0E20EF31EC81B73
:10043000020F131FC111F0CF80E0DF91CF911F9108
:100440000F91FF90EF90DF90089500D0CDB7DEB709
:1004500081E08AB90E945D007E0182E0E80EF11C15
:10046000C7010E9480008FE097E20197F1F700C07A
:10047000000010E000E0AE014F5F5F4FB801C70120
:100480000E94910089810E946F000F5F1F4F02310F
:10049000110589F7C7010E94760090E080E00F9077
:0804A0000F900895F894FFCFBE
:0204A80067A04B
:00000001FF
