:100000000C943E000C9453000C9453000C94530039
:100010000C9453000C9453000C9453000C94530014
:100020000C9453000C9453000C9453000C94530004
:100030000C9453000C9453000C9453000C945300F4
:100040000C9453000C9453000C9453000C945300E4
:100050000C9453000C9453000C9453000C945300D4
:100060000C9453000C9453000C9453000C945300C4
:100070000C9453000C9453000C94530011241FBE95
:10008000CFEFD8E0DEBFCDBF11E0A0E0B1E0E2ED00
:10009000F8E002C005900D92A832B107D9F70E948E
:1000A000F1000C9467040C9400001092C5008FECD2
:1000B0008093C4001092C00088E18093C1008EE05C
:1000C0008093C20008959091C00095FD07C0EFE5B0
:1000D000FAEE3197F1F700C00000F5CF8093C6002B
:1000E00008950F931F93CF93DF93EC018C01060FBC
:1000F000111DC017D10721F089910E946300F9CF2B
:10010000DF91CF911F910F9108951F93CF93DF93AC
:10011000EC01162FCE010E942804811721F00E94C5
:1001200063002196F7CFDF91CF911F9108958091C1
:10013000C00087FFFCCF8091C6000895F89484B179
:100140008C6384B916BC83EA84BD82E085BD789453
:1001500008952D9817BC2EEF269FC001279F900D64
:10016000112464E670E00E94610168BD08952A9838
:100170002EEF269FC001279F900D112464E670E0AA
:100180000E94610167BD18BC089517BC18BC089592
:10019000CF93DF93EA01EEEFE69FC001E79F900D5A
:1001A000112424E630E0B9010E94610167BDEC9F93
:1001B000C001ED9F900D1124B9010E94610168BD3D
:1001C000DF91CF9108959C0195B19B7D95B9C901AF
:1001D0000C94C8009C0195B1946295B9C9010C9426
:1001E000C800CDB7DEB7E3970FB6F894DEBF0FBEF9
:1001F000CDBF0E9455007E0123E3E20EF11CC70132
:100200000E949E0004E610E080E0C82E81E0D82E17
:10021000CE0101965C011F930F93DF92CF92BF92A4
:10022000AF920E948901A80164E670E0C7010E94B4
:10023000E3009FEF23ED80E3915020408040E1F701
:1002400000C00000B801C7010E94B7009FEF23ED76
:1002500080E3915020408040E1F700C0000064E658
:1002600070E0C7010E94A9009FEF23ED80E3915049
:1002700020408040E1F700C00000A80164E670E083
:10028000C7010E94EA009FEF23ED80E391502040D8
:100290008040E1F700C00000C7010E94C5009FEF49
:1002A00023ED80E3915020408040E1F700C0000042
:1002B000015011090F900F900F900F900F900F9019
:1002C000AACF97FB072E16F4009407D077FD09D02C
:1002D0000E94750107FC05D03EF4909581959F4FD3
:1002E0000895709561957F4F0895AA1BBB1B51E13E
:1002F00007C0AA1FBB1FA617B70710F0A61BB70B96
:10030000881F991F5A95A9F780959095BC01CD013A
:100310000895AEE0B0E0EFE8F1E00C943E040D8902
:100320001E8986E08C831A8309838FEF9FE79E8363
:100330008D83AE01475E5F4F6F89788DCE01019648
:100340000E94AC012F813885020F131FF801108223
:100350002E96E4E00C945A04AFE0B0E0E2EBF1E05A
:100360000C9430047C013B018A01DC0117961C923D
:100370001E92169713968C9181FFC3C19AE0292E85
:10038000FE0131964F01D70113969C91F30193FD25
:10039000859193FF81913F01882309F448C18532FB
:1003A00039F493FD859193FF81913F01853229F4C2
:1003B000B70190E00E949A03E6CFB12C412C512C5A
:1003C000BFE1B51538F08B3209F188F4803201F1C4
:1003D000833221F157FC3AC020ED280F2A3040F536
:1003E00056FE1FC0B29C200D1124B22E06C08D32C5
:1003F00091F0803379F7689450F8F30193FD85917B
:1004000093FF81913F018111DBCF20C0689451F8A7
:10041000689452F8F2CF689453F8EFCF689454F888
:10042000ECCF429C200D1124422E689455F8E5CF64
:100430008E3229F456FCFBC0689456F8DECF8C3619
:1004400019F4689457F8D9CF8836B9F2982F9F7D60
:1004500095549330C0F08336A1F18337C1F18335D1
:1004600009F05BC0D801CD90DD908D016B2D70E05F
:1004700056FC02C06FEF7FEFC6010E9484035C014F
:10048000689457F80AC00C5F1F4FEFE3E983AA2472
:10049000A394B12C6401E89457F853FC04C04A14A7
:1004A0001B0409F018F5342CA114B10431F53320E4
:1004B00009F469CFB70180E290E00E949A033A9470
:1004C000F6CFD8018C9189830E5F1F4FE0CFF801E2
:1004D000C190D1908F016B2D70E056FC02C06FEF80
:1004E0007FEFC6010E948F035C01D5CFB70180E288
:1004F00090E00E949A034A94D2CFF60157FC85916E
:1005000057FE81916F01B70190E00E949A0331106C
:100510003A94B1E0AB1AB108C7CF843619F08936E6
:1005200009F074C0F80157FE6AC061917191819120
:1005300091918F01E52DEF76DE2E97FF09C0909502
:100540008095709561957F4F8F4F9F4F6894D7F836
:100550002AE030E0A4010E94CA03C82EC818AC2CBF
:100560005D2CD6FE0CC0E89450F8CB1440F4D4FEB9
:1005700005C0D2FC03C05D2D5E7E552EAB2C54FE13
:1005800098C0FE01EC0DF11D8081803309F08AC016
:10059000652D697E562E752D7870372E53FC98C0C8
:1005A00050FE92C0BC2CA41418F44C0CB42CBA18F5
:1005B00054FE94C0B70180E390E00E949A0352FE7B
:1005C00009C088E790E051FE02C088E590E0B701DD
:1005D0000E949A03CB1408F48DC0CA94D12C8FEFDB
:1005E000C81AD80AC80CD91CD6018E916D01B70162
:1005F00090E00E949A038C149D04B1F758CF61914A
:100600007191072E000C880B990B93CFD52CE89491
:10061000D4F82AE030E0853739F1F52DF97FDF2E67
:100620008037A9F058F48835A9F08F36D9F0F70152
:10063000868197812F96E2E10C944C048837B9F7B4
:10064000D4FE02C06894D2F820E130E00DC0689476
:10065000D4F8F6CF54FE03C02F2F2660D22E20E10F
:1006600032E002C028E030E0F801D7FE15C0419129
:100670005191619171914C875D876E877F878F0162
:10068000A4016C857D858E859F850E94CA03C82E36
:10069000C818E894D7F863CF81919191AC0170E0CC
:1006A00060E0E9CF52FC02C0A39475CFA394A39459
:1006B00072CF852D867809F46ECFF6CFB70180E230
:1006C00090E00E949A03A394A414C0F3312C70CF3D
:1006D000342C3A18A41408F46BCFF8CF852D867803
:1006E00009F478CF8BE251FE80E257FC8DE2B7012E
:1006F00090E06ECFB70180E390E00E949A03BA9435
:1007000069CF8FEF9FEF96CFFC010590615070404D
:100710000110D8F7809590958E0F9F1F0895FC01CA
:100720006150704001900110D8F7809590958E0F20
:100730009F1F08950F931F93CF93DF93182F092FB7
:10074000EB018B8181FD09C01FEF0FEF812F902FEF
:10075000DF91CF911F910F91089582FF14C02E81D8
:100760003F818C819D81281739073CF4E881F9810C
:10077000CF0101969983888310838E819F81019692
:100780009F838E83E3CFE885F985812F0995892B97
:10079000A1F3DACFFA01AA27283051F1203181F1F3
:1007A000E8946F936E7F6E5F7F4F8F4F9F4FAF4F79
:1007B000B1E03ED0B4E03CD0670F781F891F9A1F8C
:1007C000A11D680F791F8A1F911DA11D6A0F711D40
:1007D000811D911DA11D20D009F468943F912AE04C
:1007E000269F11243019305D3193DEF6CF01089534
:1007F000462F4770405D4193B3E00FD0C9F7F6CF65
:10080000462F4F70405D4A3318F0495D31FD40522C
:10081000419302D0A9F7EACFB4E0A69597958795C2
:1008200077956795BA95C9F70097610571050895A1
:100830009B01AC010A2E069457954795379527954D
:10084000BA95C9F7620F731F841F951FA01D0895E5
:10085000F999FECF92BD81BDF89A992780B5089588
:100860002F923F924F925F926F927F928F929F92C0
:10087000AF92BF92CF92DF92EF92FF920F931F93AE
:10088000CF93DF93CDB7DEB7CA1BDB0B0FB6F8945F
:10089000DEBF0FBECDBF09942A88398848885F849F
:1008A0006E847D848C849B84AA84B984C884DF8010
:1008B000EE80FD800C811B81AA81B981CE0FD11DF4
:1008C0000FB6F894DEBF0FBECDBFED010895F894CA
:0208D000FFCF58
:1008D2004C612076616C65757220646520706F755D
:1008E2007263656E7461676530433042206573746C
:0808F200203A2025640A0000F1
:00000001FF
