:100000000C943E000C9448000C9448000C9448005A
:100010000C9448000C9448000C9448000C94480040
:100020000C9448000C9448000C9448000C94480030
:100030000C9448000C9448000C9448000C94480020
:100040000C9448000C9448000C9448000C94480010
:100050000C9448000C9448000C9448000C94480000
:100060000C9448000C9448000C9448000C944800F0
:100070000C9448000C9448000C94480011241FBEB6
:10008000CFEFD8E0DEBFCDBF0E9476000C947B009E
:100090000C94000062E0E8EEF3E088EE93E023E0E9
:1000A00030E0DF01A81BB90B62B950E040E000006E
:1000B0004F5F5F4F48175907D0F312B850E040E048
:1000C0004A175B0720F400004F5F5F4FF9CF2150C4
:1000D000310951F7019719F72FEF81EE94E0215084
:1000E00080409040E1F700C00000D7CF8FEF81B98A
:0A00F0001AB80E944A00F894FFCFEE
:00000001FF
