:100000000C943E000C9448000C9448000C9448005A
:100010000C9448000C9448000C9448000C94480040
:100020000C9448000C9448000C9448000C94480030
:100030000C9448000C9448000C9448000C94480020
:100040000C9448000C9448000C9448000C94480010
:100050000C9448000C9448000C9448000C94480000
:100060000C9448000C9448000C9448000C944800F0
:100070000C9448000C9448000C94480011241FBEB6
:10008000CFEFD8E0DEBFCDBF0E94DC000C94F402BD
:100090000C940000EF92FF920F931F93CF93DF9386
:1000A00000D000D000D0CDB7DEB77B018C0160E07E
:1000B00070E080E89FE30E94440169837A838B8328
:1000C0009C8369817A818B819C810E94B601462F35
:1000D000572F5E834D83CA01B0E0A0E089839A83E5
:1000E000AB83BC83BC01CD010E94E5019701A8014F
:1000F00069837A838B839C8369817A818B819C81DC
:100100000E94730220E030E048EC52E469837A8375
:100110008B839C8369817A818B819C810E944401BD
:1001200069837A838B839C8369817A818B819C81AB
:100130000E94B6019B0182E090E06D817E810E9469
:10014000E00290E080E0E1E0AD81BE81A21BB30B54
:10015000BA83A9838617970711F1E2B950E040E00E
:100160004217530749F0A7ECB0E01197F1F700C030
:1001700000004F5F5F4FF4CF12B850E040E0A9811C
:10018000BA814A175B0748F4A7ECB0E01197F1F782
:1001900000C000004F5F5F4FF2CF0196DBCF269685
:1001A0000FB6F894DEBF0FBECDBFDF91CF911F9188
:1001B0000F91FF90EF9008958FEF81B984B91AB82D
:1001C00085B920E030E040E752E460E070E0CB0128
:1001D0000E944A0020E030E040E752E460E070E036
:1001E00088EC91E40E944A0020E030E040E752E4CD
:1001F00060E070E088E492E40E944A0020E030E091
:1002000040E752E460E070E086E992E40E944A0030
:1002100020E030E040E752E460E070E088EC92E4F7
:100220000E944A0020E030E048EC53E460E070E0D7
:10023000CB010E944A0020E030E048EC53E460E04B
:1002400070E088EC91E40E944A0020E030E048EC45
:1002500053E460E070E088E492E40E944A0020E009
:1002600030E048EC53E460E070E086E992E40E94FC
:100270004A0020E030E048EC53E460E070E088ECB5
:1002800092E40E944A009DCF0E9458010C943902CA
:100290000E94320258F00E942B0240F029F45F3F86
:1002A00029F00C94220251110C946D020C94280236
:1002B0000E944A0268F39923B1F3552391F3951BE9
:1002C000550BBB27AA2762177307840738F09F5F77
:1002D0005F4F220F331F441FAA1FA9F335D00E2EE4
:1002E0003AF0E0E832D091505040E695001CCAF751
:1002F0002BD0FE2F29D0660F771F881FBB1F261714
:1003000037074807AB07B0E809F0BB0B802DBF01EA
:10031000FF2793585F4F3AF09E3F510578F00C94B9
:1003200022020C946D025F3FE4F3983ED4F386956D
:1003300077956795B795F7959F5FC9F7880F911DDA
:100340009695879597F90895E1E0660F771F881FC6
:10035000BB1F621773078407BA0720F0621B730B79
:10036000840BBA0BEE1F88F7E09508950E945202A5
:1003700088F09F5798F0B92F9927B751B0F0E1F066
:10038000660F771F881F991F1AF0BA95C9F714C016
:10039000B13091F00E946C02B1E008950C946C02AF
:1003A000672F782F8827B85F39F0B93FCCF386954F
:1003B00077956795B395D9F73EF4909580957095AC
:1003C00061957F4F8F4F9F4F0895E89409C097FB29
:1003D0003EF490958095709561957F4F8F4F9F4F1C
:1003E0009923A9F0F92F96E9BB279395F695879560
:1003F00077956795B795F111F8CFFAF4BB0F11F423
:1004000060FF1BC06F5F7F4F8F4F9F4F16C08823C9
:1004100011F096E911C0772321F09EE8872F762FFF
:1004200005C0662371F096E8862F70E060E02AF040
:100430009A95660F771F881FDAF7880F969587952C
:1004400097F9089597F99F6780E870E060E0089554
:100450009FEF80EC089500240A94161617061806DC
:100460000906089500240A941216130614060506B8
:100470000895092E0394000C11F4882352F0BB0F49
:1004800040F4BF2B11F460FF04C06F5F7F4F8F4FAC
:100490009F4F089557FD9058440F551F59F05F3FE7
:1004A00071F04795880F97FB991F61F09F3F79F096
:1004B00087950895121613061406551FF2CF469518
:1004C000F1DF08C0161617061806991FF1CF86959A
:1004D0007105610508940895E894BB27662777277E
:1004E000CB0197F908950E9486020C9439020E946C
:1004F0002B0238F00E94320220F0952311F00C9468
:1005000022020C94280211240C946D020E944A02CB
:1005100070F3959FC1F3950F50E0551F629FF00156
:10052000729FBB27F00DB11D639FAA27F00DB11D6F
:10053000AA1F649F6627B00DA11D661F829F2227F8
:10054000B00DA11D621F739FB00DA11D621F839F7F
:10055000A00D611D221F749F3327A00D611D231F55
:10056000849F600D211D822F762F6A2F11249F57A3
:1005700050409AF0F1F088234AF0EE0FFF1FBB1FA6
:10058000661F771F881F91505040A9F79E3F510565
:1005900080F00C9422020C946D025F3FE4F3983ECD
:1005A000D4F3869577956795B795F795E7959F5F0F
:1005B000C1F7FE2B880F911D9695879597F90895A1
:1005C000AA1BBB1B51E107C0AA1FBB1FA617B70779
:1005D00010F0A61BB70B881F991F5A95A9F7809595
:0C05E0009095BC01CD010895F894FFCF68
:00000001FF
