:100000000C943E000C9448000C9448000C9448005A
:100010000C9448000C9448000C9448000C94480040
:100020000C9448000C9448000C9448000C94480030
:100030000C9448000C9448000C9448000C94480020
:100040000C9448000C9448000C9448000C94480010
:100050000C9448000C9448000C9448000C94480000
:100060000C9448000C9448000C9448000C944800F0
:100070000C9448000C9448000C94480011241FBEB6
:10008000CFEFD8E0DEBFCDBF0E9495000C947F0279
:100090000C940000F89484B18C6084B916BC83E899
:1000A00084BD82E085BD78940895CF93DF9300D01E
:1000B00000D0CDB7DEB79C01990F440B550B2983B7
:1000C0003A834B835C83CA01B9010E945E0120E040
:1000D00030E048EC52E469837A838B839C836981A6
:1000E0007A818B819C810E94BB0020E030E04EE74A
:1000F00053E469837A838B839C8369817A818B81C2
:100100009C810E94EA0169837A838B839C83698145
:100110007A818B819C810E942D0167BD0F900F9089
:100120000F900F90DF91CF9108950E944A008DE7C4
:10013000C82ED12C94E0F92E05E010E020E0C22F6B
:1001400080E0D82FCE010E945500CE014996B6011D
:100150000E945702EC019FEF23ED80E39150204075
:100160008040E1F700C000000150110959F785B146
:100170008F2585B9E1CF0E94CF000C94B0010E9479
:10018000A90158F00E94A20140F029F45F3F29F034
:100190000C94990151110C94E4010C949F010E945C
:1001A000C10168F39923B1F3552391F3951B550BC6
:1001B000BB27AA2762177307840738F09F5F5F4F3A
:1001C000220F331F441FAA1FA9F335D00E2E3AF079
:1001D000E0E832D091505040E695001CCAF72BD091
:1001E000FE2F29D0660F771F881FBB1F26173707E2
:1001F0004807AB07B0E809F0BB0B802DBF01FF2714
:1002000093585F4F3AF09E3F510578F00C94990156
:100210000C94E4015F3FE4F3983ED4F38695779520
:100220006795B795F7959F5FC9F7880F911D9695CC
:10023000879597F90895E1E0660F771F881FBB1F28
:10024000621773078407BA0720F0621B730B840BD5
:10025000BA0BEE1F88F7E09508950E94C90188F057
:100260009F5798F0B92F9927B751B0F0E1F0660F7A
:10027000771F881F991F1AF0BA95C9F714C0B130BB
:1002800091F00E94E301B1E008950C94E301672F1F
:10029000782F8827B85F39F0B93FCCF386957795EA
:1002A0006795B395D9F73EF49095809570956195D3
:1002B0007F4F8F4F9F4F0895E89409C097FB3EF4FE
:1002C00090958095709561957F4F8F4F9F4F9923A3
:1002D000A9F0F92F96E9BB279395F6958795779521
:1002E0006795B795F111F8CFFAF4BB0F11F460FFE1
:1002F0001BC06F5F7F4F8F4F9F4F16C0882311F039
:1003000096E911C0772321F09EE8872F762F05C04C
:10031000662371F096E8862F70E060E02AF09A95E7
:10032000660F771F881FDAF7880F9695879597F9DC
:10033000089597F99F6780E870E060E008959FEF67
:1003400080EC089500240A9416161706180609066C
:10035000089500240A94121613061406050608953B
:10036000092E0394000C11F4882352F0BB0F40F4C3
:10037000BF2B11F460FF04C06F5F7F4F8F4F9F4F03
:10038000089557FD9058440F551F59F05F3F71F085
:100390004795880F97FB991F61F09F3F79F08795EC
:1003A0000895121613061406551FF2CF4695F1DF75
:1003B00008C0161617061806991FF1CF8695710505
:1003C000610508940895E894BB2766277727CB0139
:1003D00097F908950E94FD010C94B0010E94A201BA
:1003E00038F00E94A90120F0952311F00C94990196
:1003F0000C949F0111240C94E4010E94C10170F33C
:10040000959FC1F3950F50E0551F629FF001729FB9
:10041000BB27F00DB11D639FAA27F00DB11DAA1FC8
:10042000649F6627B00DA11D661F829F2227B00D15
:10043000A11D621F739FB00DA11D621F839FA00DA0
:10044000611D221F749F3327A00D611D231F849FF0
:10045000600D211D822F762F6A2F11249F57504047
:100460009AF0F1F088234AF0EE0FFF1FBB1F661FC2
:10047000771F881F91505040A9F79E3F510580F08B
:100480000C9499010C94E4015F3FE4F3983ED4F39B
:10049000869577956795B795F795E7959F5FC1F72F
:1004A000FE2B880F911D9695879597F9089597FBD8
:1004B000072E16F4009407D077FD09D00E946B0236
:1004C00007FC05D03EF4909581959F4F0895709557
:1004D00061957F4F0895AA1BBB1B51E107C0AA1F5E
:1004E000BB1FA617B70710F0A61BB70B881F991FD5
:1004F0005A95A9F780959095BC01CD010895F8947F
:02050000FFCF2B
:00000001FF
