:100000000C9442000C946C000C946A000C946A00EE
:100010000C946A000C946A000C946A000C946A00B8
:100020000C946A000C946A000C946A000C946A00A8
:100030000C946A000C946A000C946A000C946A0098
:100040000C946A000C946A000C946A000C946A0088
:100050000C946A000C946A000C946A000C946A0078
:100060000C946A000C946A000C946A000C946A0068
:100070000C946A000C946A000C946A009804AA0418
:10008000A604AE0411241FBECFEFD8E0DEBFCDBF63
:1000900011E0A0E0B1E0EAEDF9E002C005900D92B8
:1000A000A230B107D9F721E0A2E0B1E001C01D9272
:1000B000AD30B207E1F710E0C0E4D0E004C0219712
:1000C000FE010E94DA04CE33D107C9F70E943D0435
:1000D0000C94E0040C9400001F921FB61F92112490
:1000E000109200011F901FBE1F9018951AB80C9413
:1000F000590110920C0110920B010C945702CF93EE
:10010000482FC62F60910B0170910C018AE091E09D
:100110000E946F0380910B0190910C0101969093C6
:100120000C0180930B0181EE94E00197F1F700C080
:10013000000060910B0170910C014C2F8AE091E05E
:100140000E946F0380910B0190910C010196909396
:100150000C0180930B0181EE94E00197F1F700C050
:100160000000CF910895FF920F931F93CF93DF93D9
:1001700000D0CDB7DEB7F82E092F162F70E0AE01F4
:100180004E5F5F4F8AE091E00E94A9021F5F612FDE
:1001900070E0AE014F5F5F4F8AE091E00E94A902DC
:1001A000498150E06A8170E08F2D902F0E944B01B1
:1001B0008A810E94650289810E9465020F900F90DA
:1001C000DF91CF911F910F91FF90089580910B01C6
:1001D0000895CF93DF930F92CDB7DEB7682F70E00D
:1001E000AE014F5F5F4F8AE091E00E94A9028981D2
:1001F0000F90DF91CF910895F89484B18C6384B906
:1002000016BC83EA84BD82E085BD789408950C9481
:10021000FC00F89484B1837C84B915BC14BC789438
:1002200008952D9817BC2EEF269FC001279F900D93
:10023000112464E670E00E94B20468BD08952A9813
:100240002EEF269FC001279F900D112464E670E0D9
:100250000E94B20467BD18BC089517BC18BC08956D
:10026000CF93DF93EA01EEEFE69FC001E79F900D89
:10027000112424E630E0B9010E94B20467BDEC9F6E
:10028000C001ED9F900D1124B9010E94B20468BD18
:10029000DF91CF9108959C0195B19B7D95B9C901DE
:1002A0000C9430019C0195B1946295B9C9010C94EC
:1002B0003001F894E89AE9E6F0E08081826080837A
:1002C00078940895F894E99AE9E6F0E080818860EE
:1002D000808378940895F894EA9AE9E6F0E08081C2
:1002E0008062808378940895FC01718360834283E7
:1002F0005383248335836232710589F481B161E0CF
:1003000070E0FB0102C0EE0FFF1F2A95E2F78E2B73
:1003100001C0660F4A95EAF7862B81B908956532C8
:10032000710589F484B161E070E0FB0102C0EE0F59
:10033000FF1F2A95E2F78E2B01C0660F4A95EAF758
:10034000862B84B908956832710589F487B161E01C
:1003500070E0FB0102C0EE0FFF1F2A95E2F78E2B23
:1003600001C0660F4A95EAF7862B87B908956B326C
:10037000710581F48AB161E070E0FB0102C0EE0F0B
:10038000FF1F2A95E2F78E2B01C0660F4A95EAF708
:10039000862B8AB90895FC01A081B1814C9121E09E
:1003A00030E0C901028002C0880F991F0A94E2F769
:1003B000B901048002C0660F771F0A94E2F7862B0A
:1003C000809584238C93A081B1818C91028002C09E
:1003D000220F331F0A94E2F7282B2C930895FC0177
:1003E000A081B1814C9121E030E0C901028002C0BE
:1003F000880F991F0A94E2F7B901048002C0660FC2
:10040000771F0A94E2F7862B809584238C93A08132
:10041000B1818C91048002C0220F331F0A94E2F74D
:10042000282B2C930895EF92FF920F931F93CF9355
:10043000DF93D82FC92F7B0110E000E00E151F05B8
:10044000BCF48D2F9C2F0E94CB018FE097E2019787
:10045000F1F700C000008D2F9C2F0E94EF018FE06C
:1004600097E20197F1F700C000000F5F1F4FE6CF42
:10047000DF91CF911F910F91FF90EF900895FC01B4
:10048000A081B1814C9121E030E0C901028002C01D
:10049000880F991F0A94E2F7048002C0220F331FCD
:1004A0000A94E2F7822B809584238C93089510920E
:1004B000C5008FEC8093C4001092C00088E1809347
:1004C000C1008EE08093C20008959091C00095FD18
:1004D00007C0EFE5FAEE3197F1F700C00000F5CF65
:1004E0008093C60008950F931F93CF93DF93EC0181
:1004F0008C01060F111DC017D10721F089910E94B0
:100500006502F9CFDF91CF911F910F9108958091EE
:10051000C00087FFFCCF8091C6000895089580EA4F
:10052000809301011092B90080E28093B800089591
:10053000FC0180E88083CF010C948F02982F937088
:10054000891305C0880F806A8093010108958FEF99
:100550000895FA0194EA24E89093BC008091BC00CD
:1005600087FFFCCF809101018093BB002093BC00EA
:100570008091BC0087FFFCCF8091B900883161F782
:1005800084EA8093BC008091BC0087FFFCCF8091FF
:1005900001018093BB0084E88093BC008091BC0083
:1005A00087FFFCCF7093BB0084E88093BC008091F0
:1005B000BC0087FFFCCF6093BB0084E88093BC0045
:1005C0008091BC0087FFFCCF8091BC0087FFFCCFEF
:1005D00084EA8093BC008091BC0087FFFCCF8091AF
:1005E00001018F5F8093BB0084E88093BC00809101
:1005F000BC0087FFFCCF84E88093BC008091BC00E6
:1006000087FFFCCF8091BB00808384E98093BC008E
:1006100080E0089594EA34E89093BC008091BC0097
:1006200087FFFCCF809101018093BB003093BC0019
:100630008091BC0087FFFCCF8091B900883161F7C1
:1006400084EA8093BC008091BC0087FFFCCF80913E
:1006500001018093BB0084E88093BC008091BC00C2
:1006600087FFFCCF7093BB0084E88093BC0080912F
:10067000BC0087FFFCCF6093BB0084E88093BC0084
:100680008091BC0087FFFCCF84EA8093BC008091FE
:10069000BC0087FFFCCF809101018F5F8093BB007E
:1006A00084E88093BC008091BC0087FFFCCF84EC81
:1006B000222381F0213009F484E88093BC009091DA
:1006C000BC0097FFFCCFFA019091BB0091932150A1
:1006D000AF01EECF84E98093BC0080E0089594EAF6
:1006E00024E89093BC008091BC0087FFFCCF8091F0
:1006F00001018093BB002093BC008091BC0087FF68
:10070000FCCF8091B900883161F784EA8093BC0006
:100710008091BC0087FFFCCF809101018093BB00DA
:1007200084E88093BC008091BC0087FFFCCF70936D
:10073000BB0084E88093BC008091BC0087FFFCCFA5
:100740006093BB0084E88093BC008091BC0087FF6D
:10075000FCCF4093BB0084E88093BC008091BC0038
:1007600087FFFCCF84E98093BC0080E00895FB0103
:10077000260F372F311DDC018C918150990B862B70
:100780009F2B2817390718F09C012F5F3F4F822FAE
:100790008E1B24EA34E82093BC009091BC0097FFA4
:1007A000FCCF909101019093BB003093BC009091DD
:1007B000BC0097FFFCCF9091B900983161F794EAA3
:1007C0009093BC009091BC0097FFFCCF90910101E9
:1007D0009093BB0094E89093BC009091BC0097FF6D
:1007E000FCCFF093BB0094E89093BC009091BC00C8
:1007F00097FFFCCFE093BB0094E89093BC009091EE
:10080000BC0097FFFCCF982F24E8992369F0FA01E8
:1008100031913093BB002093BC003091BC0037FF76
:10082000FCCF9150AF01F1CF94E99093BC000895B3
:10083000DF92EF92FF920F931F93CF93DF93D82E07
:10084000D92F7B018A01C22F2C2FA801B7018D2D32
:100850009D2F0E94B703282F30E0E20EF31EC81B25
:10086000020F131FC111F0CF80E0DF91CF911F91D4
:100870000F91FF90EF90DF9008950E94760011B8DD
:1008800081E082B90E947900C4E1D0E0809100014A
:100890008823A9F04FEF50E06FEF70E089E091E01E
:1008A0000E944B016FEF8FEF0E947F002FEF80E7D8
:1008B00092E0215080409040E1F700C00000219775
:1008C00029F789E091E00E942D012FEF89E698E158
:1008D000215080409040E1F700C000000E94E600F7
:1008E000182FD0E0D117E8F48D2F90E00E94E90096
:1008F000C82F81E08D0F90E00E94E900DE5F482F55
:1009000050E06C2F70E089E091E00E944B012FEFE6
:1009100080E792E0215080409040E1F700C0000065
:10092000E1CF89E091E00E942D0190E080E0089500
:1009300089E091E00E94070121E030E050E040E0D2
:1009400062E270E082E091E00C94740189E091E051
:100950000C9409018AE091E00C9498028AE091E0FD
:100960000C948E0297FB072E16F4009407D077FDA7
:1009700009D00E94C60407FC05D03EF490958195ED
:100980009F4F0895709561957F4F0895AA1BBB1BDB
:1009900051E107C0AA1FBB1FA617B70710F0A61B7F
:1009A000B70B881F991F5A95A9F780959095BC01A0
:1009B000CD010895EE0FFF1F0590F491E02D0994ED
:1009C00010E0C0E4D0E004C0FE010E94DA042196E9
:0A09D000C234D107C9F7F894FFCF35
:0209DA0001A07A
:00000001FF
