:100000000C947F000C9494000C9494000C94940035
:100010000C9494000C9494000C9494000C94940010
:100020000C9494000C9494000C9494000C94940000
:100030000C9494000C9494000C9494000C949400F0
:100040000C9494000C9494000C9494000C949400E0
:100050000C9494000C9494000C9494000C949400D0
:100060000C9494000C9494000C9494000C949400C0
:100070000C9494000C9494000C9494000763423602
:10008000B79BD8A71A39685618AEBAAB558C1D3C29
:10009000B7CC5763BD6DEDFD753EF6177231BF00ED
:1000A0000000803F08000000BE922449123EABAA27
:1000B000AA2ABECDCCCC4C3E00000080BEABAAAA82
:1000C000AA3E00000000BF000000803F00000000CA
:1000D00000084178D3BB4387D1133D190E3CC3BD03
:1000E0004282AD2B3E68EC8276BED98FE1A93E4CB0
:1000F00080EFFFBE01C4FF7F3F000000000011241D
:100100001FBECFEFD8E0DEBFCDBF11E0A0E0B1E071
:10011000E6E5F2E102C005900D92A230B107D9F7F1
:100120000E94C9040C9429090C9400001092C50087
:100130008FEC8093C4001092C00088E18093C100CE
:100140008EE08093C20008959091C00095FD07C095
:10015000EFE5FAEE3197F1F700C00000F5CF80939C
:10016000C60008950F931F93CF93DF93EC018C018A
:10017000060F111DC017D10721F089910E94A4001C
:10018000F9CFDF91CF911F910F9108951F93CF93D6
:10019000DF93EC01162FCE010E942109811721F077
:1001A0000E94A4002196F7CFDF91CF911F9108956F
:1001B0008091C00087FFFCCF8091C600089508950C
:1001C00080EA809300011092B90080E28093B80029
:1001D0000895FC0180E88083CF010C94E000982F03
:1001E0009370891305C0880F806A80930001089579
:1001F0008FEF0895FA0194EA24E89093BC0080916F
:10020000BC0087FFFCCF809100018093BB0020934E
:10021000BC008091BC0087FFFCCF8091B900883181
:1002200061F784EA8093BC008091BC0087FFFCCF1B
:10023000809100018093BB0084E88093BC00809192
:10024000BC0087FFFCCF7093BB0084E88093BC00A8
:100250008091BC0087FFFCCF6093BB0084E8809353
:10026000BC008091BC0087FFFCCF8091BC0087FF61
:10027000FCCF84EA8093BC008091BC0087FFFCCF58
:10028000809100018F5F8093BB0084E88093BC0065
:100290008091BC0087FFFCCF84E88093BC008091F4
:1002A000BC0087FFFCCF8091BB00808384E98093F2
:1002B000BC0080E0089594EA34E89093BC008091FB
:1002C000BC0087FFFCCF809100018093BB0030937E
:1002D000BC008091BC0087FFFCCF8091B9008831C1
:1002E00061F784EA8093BC008091BC0087FFFCCF5B
:1002F000809100018093BB0084E88093BC008091D2
:10030000BC0087FFFCCF7093BB0084E88093BC00E7
:100310008091BC0087FFFCCF6093BB0084E8809392
:10032000BC008091BC0087FFFCCF84EA8093BC00B6
:100330008091BC0087FFFCCF809100018F5F80938C
:10034000BB0084E88093BC008091BC0087FFFCCF99
:1003500084EC222381F0213009F484E88093BC00EE
:100360009091BC0097FFFCCFFA019091BB00919354
:100370002150AF01EECF84E98093BC0080E0089566
:1003800094EA24E89093BC008091BC0087FFFCCFE6
:10039000809100018093BB002093BC008091BC0041
:1003A00087FFFCCF8091B900883161F784EA8093A0
:1003B000BC008091BC0087FFFCCF8091000180933E
:1003C000BB0084E88093BC008091BC0087FFFCCF19
:1003D0007093BB0084E88093BC008091BC0087FFD1
:1003E000FCCF6093BB0084E88093BC008091BC008C
:1003F00087FFFCCF4093BB0084E88093BC008091D2
:10040000BC0087FFFCCF84E98093BC0080E00895A6
:10041000FB01260F372F311DDC018C918150990B88
:10042000862B9F2B2817390718F09C012F5F3F4F11
:10043000822F8E1B24EA34E82093BC009091BC00EC
:1004400097FFFCCF909100019093BB003093BC00CC
:100450009091BC0097FFFCCF9091B900983161F763
:1004600094EA9093BC009091BC0097FFFCCF9091D0
:1004700000019093BB0094E89093BC009091BC0065
:1004800097FFFCCFF093BB0094E89093BC00909151
:10049000BC0097FFFCCFE093BB0094E89093BC00B6
:1004A0009091BC0097FFFCCF982F24E8992369F026
:1004B000FA0131913093BB002093BC003091BC0015
:1004C00037FFFCCF9150AF01F1CF94E99093BC007E
:1004D0000895DF92EF92FF920F931F93CF93DF93D4
:1004E000D82ED92F7B018A01C22F2C2FA801B7014A
:1004F0008D2D9D2F0E940802282F30E0E20EF31E62
:10050000C81B020F131FC111F0CF80E0DF91CF9104
:100510001F910F91FF90EF90DF900895F894109243
:100520006F001092810010928000789408951092CC
:10053000850010928400109280008AE080938100F0
:100540001092820078940895FC0110821182128228
:1005500013820C949702CF93DF93CDB7DEB72A971F
:100560000FB6F894DEBF0FBECDBF8D839E8383EDA3
:10057000860F853208F049C0862F90E0B0E0A0E0F9
:1005800089839A83AB83BC83BC01CD010E94A306FF
:1005900020E030E04AE852E469837A838B839C83CD
:1005A00069817A818B819C810E94930520E030E0F3
:1005B00040E451E469837A838B839C8369817A81E7
:1005C0008B819C810E9400069B01AC0160E070E081
:1005D00080E090E40E949C0720E030E04CED53E482
:1005E00069837A838B839C8369817A818B819C81E7
:1005F0000E942F076F83788789879A87AD81BE8194
:100600006D937D938D939C93139720E030E040E8A9
:1006100051E4ED81FE8160817181828193810E942C
:100620002F079B01AC0160E074E284EF9AE40E9422
:10063000000669837A838B839C8369817A818B81AD
:100640009C810E947206462F572F50938900409339
:1006500088002A960FB6F894DEBF0FBECDBFDF919B
:10066000CF91089510928900109288000895CF9339
:10067000DF930F92CDB7DEB78FEF84B982E085B9F3
:100680002FEF30E792E0215030409040E1F700C07A
:10069000000015B82FEF30E792E021503040904035
:1006A000E1F700C0000085B92FEF30E782E021506C
:1006B00030408040E1F700C0000015B8CE0101963F
:1006C0000E947704CE0101960E9479040F90DF9179
:1006D000CF91089590E080E070E08617970744F48A
:1006E000EFE7FBEB3197F1F700C000000196F5CF83
:1006F00008951F93CF93DF9300D000D0CDB7DEB71E
:10070000162FCE0101960E94A402612FCE01019600
:100710000E94AB02CE0101960E948E020F900F90B4
:100720000F900F90DF91CF911F910895CF93DF939A
:1007300000D000D0CDB7DEB7CE0101960E94A40252
:10074000CE0101960E943203CE0101960E948E02D4
:100750000F900F900F900F90DF91CF91089581E04F
:10076000662351F030E020E070E0880F2F5F3F4FAC
:1007700062177307D4F708950895DF92EF92FF92FE
:100780000F931F93CF93DF93082FD92E142FE62EAC
:10079000F12CC7E0D0E06C2F802F9D2D0E94AF037D
:1007A00090E08E159F051CF415B9E81AF90A2197F7
:1007B00091F7DF91CF911F910F91FF90EF90DF9014
:1007C0000895CF93DF930F92CDB7DEB7CE01019698
:1007D0000E947704CE0101960E949D04CE010196ED
:1007E0000E9479040F90DF91CF910895CF93DF930A
:1007F000D82FC92F40E06FE70E94BD038D2F9C2F9B
:100800000E94E1038D2F9C2FDF91CF910C949603D2
:100810001F93CF93DF930F92CDB7DEB7162FCE0184
:1008200001960E947704612F70E0AB01CE01019622
:100830000E94BB04CE0101960E9479040F90DF91C3
:10084000CF911F9108951F93CF93DF930F92CDB750
:10085000DEB7162FCE0101960E947704612F70E05B
:10086000AB01CE0101960E94C204CE0101960E9406
:1008700079040F90DF91CF911F910895CF93DF936B
:100880000F92CDB7DEB7CE0101960E94770464E6E1
:1008900070E0CE0101960E948F04CE0101960E9465
:1008A00079040F90DF91CF910895CF93DF930F924A
:1008B000CDB7DEB7CE0101960E94770464E670E002
:1008C000CE0101960E948104CE0101960E94790416
:1008D0000F90DF91CF910895F89484B18C6384B91F
:1008E00016BC83EA84BD82E085BD789408950C949B
:1008F0006C04F89484B1837C84B915BC14BC7894DE
:1009000008952D9817BC2EEF269FC001279F900DAC
:10091000112464E670E00E946B0568BD08952A9872
:100920002EEF269FC001279F900D112464E670E0F2
:100930000E946B0567BD18BC089517BC18BC0895CC
:10094000CF93DF93EA01EEEFE69FC001E79F900DA2
:10095000112424E630E0B9010E946B0567BDEC9FCD
:10096000C001ED9F900D1124B9010E946B0568BD77
:10097000DF91CF9108959C0195B19B7D95B9C901F7
:100980000C94A0049C0195B1946295B9C9010C9492
:10099000A004CDB7DEB72A970FB6F894DEBF0FBE1E
:1009A000CDBFCE0101960E94A402CE010A960E94FC
:1009B00077047E0189E0E80EF11CC7010E94E9007E
:1009C0000E94960010E000E00E94D800482FB80175
:1009D000C7010E94C0010F5F1F4F083E83E0180748
:1009E00099F78E01085F1F4FC8010E94E900AE0110
:1009F000495F5F4F70E060E0C8010E94FA00AE01FD
:100A00004A5F5F4F70E060E0C8010E94FA008F818A
:100A100085B978018236D8F4803608F047C084342E
:100A2000B9F150F4823071F18930D9F1813029F176
:100A3000C7010E94DF00D8CF853489F18834C1F71F
:100A40006E8170E0CE0105960E947903F1CF843665
:100A5000C1F150F4823679F1833651F76E81CE01BF
:100A600005960E942304E4CF853681F18F3F01F77C
:100A7000CE0105960E94F603DBCFCE0105960E94BB
:100A80003703D6CF6E81CE0105960E946A03D0CF80
:100A900041E06E81CE0105960E94BD03C9CF40E0C2
:100AA000F8CFCE0105960E949603C2CFCE010596DF
:100AB0000E94E103BDCF6E81CE0105960E9408041D
:100AC000B7CFCE0105960E943E04B2CFCE01059667
:100AD0000E945504CDCF97FB072E16F4009407D043
:100AE00077FD09D00E947F0507FC05D03EF4909564
:100AF00081959F4F0895709561957F4F0895AA1B2A
:100B0000BB1B51E107C0AA1FBB1FA617B70710F0F8
:100B1000A61BB70B881F991F5A95A9F7809590952A
:100B2000BC01CD0108955058BB27AA270E94AB05F0
:100B30000C94F5060E94E70638F00E94EE0620F0BD
:100B400039F49F3F19F426F40C94E4060EF4E09572
:100B5000E7FB0C94DE06E92F0E94060758F3BA174C
:100B6000620773078407950720F079F4A6F50C94C3
:100B700028070EF4E0950B2EBA2FA02D0B01B9011A
:100B800090010C01CA01A0011124FF27591B99F003
:100B9000593F50F4503E68F11A16F040A22F232F0F
:100BA000342F4427585FF3CF469537952795A7955F
:100BB000F0405395C9F77EF41F16BA0B620B730B06
:100BC000840BBAF09150A1F0FF0FBB1F661F771F77
:100BD000881FC2F70EC0BA0F621F731F841F48F42C
:100BE000879577956795B795F7959E3F08F0B0CFB5
:100BF0009395880F08F09927EE0F9795879508959C
:100C00000E9414060C94F5060E94EE0658F00E940D
:100C1000E70640F029F45F3F29F00C94DE065111FD
:100C20000C9429070C94E4060E94060768F39923A4
:100C3000B1F3552391F3951B550BBB27AA276217D8
:100C40007307840738F09F5F5F4F220F331F441FE5
:100C5000AA1FA9F335D00E2E3AF0E0E832D0915019
:100C60005040E695001CCAF72BD0FE2F29D0660F06
:100C7000771F881FBB1F261737074807AB07B0E849
:100C800009F0BB0B802DBF01FF2793585F4F3AF04F
:100C90009E3F510578F00C94DE060C9429075F3FC7
:100CA000E4F3983ED4F3869577956795B795F795D5
:100CB0009F5FC9F7880F911D9695879597F90895BD
:100CC000E1E0660F771F881FBB1F62177307840759
:100CD000BA0720F0621B730B840BBA0BEE1F88F768
:100CE000E09508950E940E0788F09F5798F0B92F5D
:100CF0009927B751B0F0E1F0660F771F881F991F51
:100D00001AF0BA95C9F714C0B13091F00E942807C3
:100D1000B1E008950C942807672F782F8827B85FD3
:100D200039F0B93FCCF3869577956795B395D9F7A8
:100D30003EF490958095709561957F4F8F4F9F4FB2
:100D40000895E89409C097FB3EF4909580957095BE
:100D500061957F4F8F4F9F4F9923A9F0F92F96E907
:100D6000BB279395F695879577956795B795F1117C
:100D7000F8CFFAF4BB0F11F460FF1BC06F5F7F4F19
:100D80008F4F9F4F16C0882311F096E911C077232B
:100D900021F09EE8872F762F05C0662371F096E834
:100DA000862F70E060E02AF09A95660F771F881F03
:100DB000DAF7880F9695879597F9089597F99F67C1
:100DC00080E870E060E008959FEF80EC08950024D3
:100DD0000A941616170618060906089500240A94A0
:100DE00012161306140605060895092E0394000C26
:100DF00011F4882352F0BB0F40F4BF2B11F460FFB5
:100E000004C06F5F7F4F8F4F9F4F089557FD9058DD
:100E1000440F551F59F05F3F71F04795880F97FBBE
:100E2000991F61F09F3F79F0879508951216130678
:100E30001406551FF2CF4695F1DF08C016161706A7
:100E40001806991FF1CF86957105610508940895DC
:100E5000E894BB2766277727CB0197F908950E946E
:100E600042070C94F5060E94E70638F00E94EE0651
:100E700020F0952311F00C94DE060C94E406112466
:100E80000C9429070E94060770F3959FC1F3950FF4
:100E900050E0551F629FF001729FBB27F00DB11DFE
:100EA000639FAA27F00DB11DAA1F649F6627B00D8E
:100EB000A11D661F829F2227B00DA11D621F739F77
:100EC000B00DA11D621F839FA00D611D221F749F85
:100ED0003327A00D611D231F849F600D211D822FCC
:100EE000762F6A2F11249F5750409AF0F1F08823F3
:100EF0004AF0EE0FFF1FBB1F661F771F881F915020
:100F00005040A9F79E3F510580F00C94DE060C94EA
:100F100029075F3FE4F3983ED4F38695779567956C
:100F2000B795F795E7959F5FC1F7FE2B880F911D49
:100F30009695879597F90895FA01EE0FFF1F309661
:100F400021053105A1F16115710561F48038BFE318
:100F50009B0749F168949038810561F08038BFEFB4
:100F60009B0741F099234AF5FF3FE1053105210533
:100F700019F1E8940894E795D901AA2329F4AB2F35
:100F8000BE2FF85FD0F310C0FF5F70F4A695E0F7B6
:100F9000F73950F019F0FF3A38F49F779F930DD04E
:100FA0000F9007FC9058089546F00C94E40660E01A
:100FB00070E080E89FE308954FE79F775F934F933A
:100FC0003F932F930E9497082F913F914F915F91EC
:100FD0000E942F070C94F40729F416F00C94DE06F7
:100FE0000C9428070C94E4060E940E07A8F3963888
:100FF000A0F707F80F92E8942BE33AEA48EB5FE793
:101000000E9445070F920F920F924DB75EB70F9255
:101010000E94DF08ECE7F0E00E9426084F915F9104
:10102000EF91FF91E595EE1FFF1F49F0FE57E06835
:101030004427EE0F441FFA95E1F74195550B0E94A6
:1010400059080F9007FE0C944D080895DF93CF9335
:101050001F930F93FF92EF92DF927B018C016894B4
:1010600006C0DA2EEF010E944207FE01E894A59126
:101070002591359145915591A6F3EF010E94AB055D
:10108000FE019701A801DA9469F7DF90EF90FF90D5
:101090000F911F91CF91DF9108959B01AC0160E00A
:1010A00070E080E89FE30C9400060C94DE060C943C
:1010B00013090E940E07D8F39923C9F3940F511D09
:1010C000A3F39150504094F059F0882332F0660F0A
:1010D000771F881F91505040C1F79E3F51052CF754
:1010E000880F911D9695879597F908955F3FACF00D
:1010F000983E9CF0BB27869577956795B79508F441
:10110000B1609395C1F7BB0F58F711F460FFE8CFBA
:101110006F5F7F4F8F4F9F4FE3CF0C94290716F0DF
:101120000C9413090C94E40668940C94DE060E9457
:101130000E07A8F39923C1F3AEF3DF93CF931F9368
:101140000F93FF92C92FDD2788232AF02197660F7E
:10115000771F881FDAF720E030E040E85FEB9FE37D
:10116000883920F0803E38F021968F770E949405D0
:10117000E4EAF0E004C00E949405E1EDF0E00E9492
:1011800026088B01BE01EC01FB2E6F577109759586
:10119000771F880B990B0E94A30628E132E741E3F1
:1011A0005FE30E944207AF2D9801AE01FF900F91BF
:1011B0001F91CF91DF910E94AB050C94F506FA01C7
:1011C000DC01AA0FBB1F9B01AC01BF5728F42227EB
:1011D00033274427507820C0B75190F4AB2F002418
:1011E000469537952795011CA395D2F3002071F001
:1011F000220F331F441FB395DAF30ED00C949305DE
:1012000061307105A0E88A07B94630F49B01AC0152
:101210006627772788279078309621F020833183BE
:101220004283538308959F3F31F0915020F4879576
:1012300077956795B795880F911D9695879597F93E
:101240000895F999FECF92BD81BDF89A992780B58E
:061250000895F894FFCFA1
:02125600A000F6
:00000001FF
